:100D1E002353544F50002353415645484F4D4500E1
:100D2E0023484F4D45002350554D50002356414CFE
:100D3E005645002347524142002352454C454153EC
:020D4E0045005E
:100F14000224000002220000C1000142000121005D
:060F2400C10102300400CF
:07000300758CFF758A2322B2
:0D0F8400E4F5C7F5C5F5C675C380F5C422B8
:050EC800FFE4355BFEB4
:100ECD0075C78375C5018FC48EC375C65A75C6A502
:060EDD0000AFC2020F8409
:050E1F00FFE43530FE88
:100E2400A2AF9203C2AF75C78375C5028FC48EC3C8
:100E34008DC275C65A75C6A500120F84A20392AF5F
:010E4400228B
:100E8D00A2AF9203C2AF75C78375C5038FC48EC35E
:0E0E9D0075C65A75C6A500120F84A20392AF47
:010EAB002224
:060D7F008B678A68896998
:100D85007DA4E4FCAB67AA68A96975F002ECA4F53B
:100D95008285F08312013DAEF06205EE62050CBC62
:040DA50003E2AF05B1
:010DA9002227
:060C6D007B007A007932E1
:060C73008B678A688969A5
:100C7900E4FFAB6AAA6BA96C75F002EFA4F5828553
:100C8900F08312013DFDACF0AB67AA68A96975F064
:100C990002EFA4F58285F083EC8DF01201750FBF88
:020CA90003D076
:010CAB002226
:060BE2008B638A64896543
:100BE800E4F569AB66AA67A96875F002E569A4F53A
:100BF8008285F08312013DFFAEF0AB63AA64A9655C
:100C080075F002E569A4F58285F08312013D6F70E5
:100C180003E5F06E60037F00220569E569B403C34C
:020C28007F014A
:010C2A0022A7
:060819008B5F8A6089611B
:10081F007D007C06300112756600756700756832C1
:10082F00120BE2EF6003020902E531240AFFE435FF
:10083F0030FED3EF9DEE9C400D7F007E04120E8D97
:10084F00753004753100AB5FAA60A961120D7F8FFF
:10085F00627DA5AF31AE30120E24E53124017D014A
:10086F00120E1FE4FCAB5FAA60A96175F002ECA445
:10087F00F58285F08312013DFDEC25E0FFE433FEA8
:10088F00E5312402CBE43530CB2FFFEB3EFE120EC9
:10089F0024AB5FAA60A96175F002ECA4F58285F024
:1008AF008312013DE5F0FDEC25E0FFE433FEE53179
:1008BF002403CBE43530CB2FFFEB3EFE120E240C7E
:1008CF00BC03A2E5312408AD62120E1FE5312409E5
:1008DF00FFE43530FE7D5A120E24855F6A85606B0A
:1008EF0085616C120C6DD201740A2531F531E43536
:0308FF0030F530A1
:0109020022D2
:090F9C007B007A00794302081978
:040CAC008E5F8F6068
:100CB000E4F561E56130010C25E02432F8E6FE0838
:100CC000E6FF800504FF120E458E628F63E5610426
:100CD000FFAB60AA5FAD63AC62120B970561E56183
:050CE000C3940340CEA7
:010CE50022EC
:10052A00755B04755C00755D06755E00C201753009
:10053A0004753100E55C240AFFE4355BFED3EF95D0
:10054A005EEE955D400302063BE55C2409120EC887
:10055A00EF645A600302063BAF5CAE5B120ECDEF4E
:10056A0064A5600302063BE55C2401120EC8EF6431
:10057A0001600302063BF566E56625E0FFE433FE0B
:10058A00E55C2402CDE4355BCD2FFFED3EFE120E75
:10059A00CDE56625E0245FF8760008A607E566251E
:1005AA00E0245FF8C000E6FC08E6FDE56625E0FF0A
:1005BA00E433FEE55C2403CBE4355BCB2FFFEB3E53
:1005CA00FE120ECDEF4CFEEDFFD000A60608A607E0
:1005DA00E56625E0245FF8E6FE08E6FF120EACE5C4
:1005EA006625E0245FF8A60608A6070566E566C341
:1005FA0094034084E55C2408120EC88F657B007A58
:10060A0000795F120D7FEFB56527756A00756B007B
:10061A00756C5F120C6DD201E55C240AF531E43584
:10062A005BF530740A255CF55CE4355BF55B020525
:01063A003E81
:01063B00229C
:100EAC00C3EF94F4EE940150057E017FF422D3EF4E
:0C0EBC0094C4EE940940047E097FC42217
:090EE30025E02426F8E4F608F6E7
:100EEC00120EACEF240AFFE43EFE7C007D140200DF
:010EFC00B243
:100E45008F64E564B401087D3C7C007F018013E577
:100E550064B402087D467C007F0280067D3C7C00F0
:060E65007F03120D502274
:100DAA00EF14600F14601114601324037014A2026C
:100DBA0092C822A20292B422A202928422A202928F
:070DCA00CB22A20292852258
:0B0F9100C2C8C2B4C284C2CBC2852219
:100C2B00EFC39401403BEFD394055035EF14FBAF6A
:100C3B0005AE04120EACAC06AD07EB25E02443F871
:100C4B00A60408A605EB25E0244DF8A60408A60586
:100C5B00EB120EE3AD03ED25E02438F8A60608A64B
:010C6B000781
:010C6C002265
:10000E00EF60067C077DD080047C037DE87F0402D0
:02001E000C2BA9
:100F4100EF60067C077DD080047C037DE87F05028D
:020F51000C2B67
:100E6B004394305393CF43B21053B1EF43CA0D5356
:100E7B00C9F2120F91E4FF12000EE4FF120F41C2F0
:020E8B00CA2279
:100B3600E4F55BE55B30010C25E02432F8E6FE08BF
:100B4600E6FF800504FF120E45AB07AA06E55B2506
:100B5600E02443F8A60208A603E55B25E0244DF849
:100B6600A60208A603E55B120EE3E55B25E0243842
:100B7600F8A60608A607055BE55BC3940340B47DAB
:100B8600E87C037F04120C2B7DE87C037F05020CB6
:010B96002B33
:10072B00E4FBEB25E02426F8E6FE08E6D39400EE86
:07073B00940050030207F6D1
:10074200EB25E02443F8E6FE08E6FFEB25E0244D26
:10075200F8E6FC08E6C39FF558EC9EF557EB25E05A
:100762002426F8E6FE08E664014E6006E558455781
:100772007022EB25E0244DF8E6FE08E6FFEB25E0CB
:100782002443F8A60608A607EB25E02426F8E4F69B
:0407920008F6806085
:10079600EB25E02426F8E6FC08E6FDAE57AF581236
:1007A60001078E598F5AE55A4559701BD3E558945F
:1007B60000E5576480948040067E007F0180047EB9
:1007C600FF7FFF8E598F5AEB25E02443F8E6FE089B
:1007D600E6255AFFE5593EFEEB25E02443F8A6063A
:1007E60008A607EB25E02426F808E6161870011679
:1007F600EB25E02443F8E6FE08E6FF120EECEB25B7
:10080600E02438F8A60608A6070BEB640560030289
:02081600072DAC
:0108180022BD
:080B97008D828C83AD03AC02DA
:100B9F00EFC39401403CEFD394055036EF14FBAFF5
:100BAF0082AE83120EAC8E838F82AE04AF057C00B3
:100BBF007D141200B2EF4E7003FE7F01EB25E0248F
:100BCF004DF8A68308A682EB25E02426F8A6060892
:020BDF00A60767
:010BE10022F1
:100DD100E4FFEF25E02443F8E6FC08E6FDEF25E01B
:100DE100244DF8A60408A605EF25E02426F8E4F62C
:060DF10008F60FBF05DC4F
:010DF70022D9
:100F5300EFC394304009EFD3943950037F01227FCC
:020F630000226A
:1009030075660075670075685B854269756A007571
:0B0913006B00756C5D7B017A007906BB
:06091E008B638A64896509
:10092400E4F56DF56EF56FAB66AA67A9681200264B
:10093400FFC395695056AB63AA64A9658F8275831A
:100944000012003FFF120F53EF6041756F01AB6659
:10095400AA67A968120026AB63AA64A965F5827523
:10096400830012003F24D0FBE434FFFAAE6DAF6E77
:100974007C007D0A1200A0EF2BF56EEE3AF56DAB0C
:1009840066AA67A968740112006C809BAB6AAA6BA3
:0B099400A96CE56F12008EAE6DAF6E17
:01099F002235
:100D5000D3ED94B4EC940040047C007DB4BF030058
:100D6000AE04AF057C077DD0120270E47BB4FAF9C3
:0F0D7000F81201DEEF24F4FFEE3401FE020EACA8
:060CE6008B5F8A6089614A
:100CEC00E4FFAB63AA64A9658F8275830012003F91
:100CFC00FE601CEFC39D5011AB5FAA60A9618F828F
:100D0C0075830012003F6E60037F00220F80D37F3B
:010D1C0001D5
:010D1D0022B3
:100DF8007C007D141200B28F828E83E58245837059
:100E080005F5837582017F01120F417F0112000EE3
:060E180085832285822380
:010E1E0022B1
:0E0F7600E4F522F523FF12000EE4FF020F4106
:10029D007563FF75640D75651E7B017A007906AD7A
:1002AD0042120CE6EF6003020DD17563FF75640D0C
:1002BD007565247B017A007906AD42120CE6EF607C
:1002CD0003020F9C7563FF75640D75652E7B017AB6
:1002DD00007906AD42120CE6EF6030755C0575666F
:1002ED000075670075685C854269756A00756B00FD
:1002FD00756C5B1209188E5D8F5EE55B7006755D22
:10030D0003755E20AF5EAE5D020CAC7563FF756468
:10031D000D7565347B017A007906AD42120CE6EF5E
:10032D00602AE542C3940650030203E890000BE0F7
:10033D00B431047F0180027F0012000E90000BE0AB
:10034D00643160030203E8F522F523227563FF751E
:10035D00640D75653A7B017A007906AD42120CE6A3
:10036D00EF6017E542C39407407190000CE0B43183
:10037D00047F0180027F00020F417563FF75640DDC
:10038D007565417B017A007906AD42120CE6EF608E
:10039D0030755C0575660075670075685C8542692A
:1003AD00756A00756B00756C5B1209188E5D8F5E3A
:1003BD00E55B7006755D01755EF4AF5EAE5D020DB9
:1003CD00F87563FF75640D7565477B017A007906D5
:0B03DD00AD42120CE6EF6003120F7639
:0103E80022F2
:1003E900E4F55BF55CF55EF55FE55BC395424003BB
:1003F9000204EF7406255BF582E43400F583E064BA
:10040900236003020529055BE55CC39403400302ED
:1004190005291209037446255CF582E43400F58345
:10042900EFF0E55D7003020529E55BC395424003E2
:100439000205297446255CF582E43400F583E0FF62
:10044900C394015003020529EFD394034003020525
:1004590029AF5B055B74062FF582E43400F583E070
:10046900F5601209038E618F62E55D70030205294B
:10047900E560B441167446255CF582E43400F583E1
:10048900E0FFAD62AC61120D508010E56064506010
:1004990003020529AF62AE61120EACE55C25E024CA
:1004A90000F582E43400F583EEF0A3EFF0055CE596
:1004B9005BC3954240030203F27406255BF582E4AF
:1004C9003400F583E0645460030203F2055BF566CA
:1004D90075670075685B854269F56A1209128E5E57
:1004E9008F5FE55D603AE55F455E7005F55E755FB6
:1004F90064E4F9E9C3955C5027E925E02400F58215
:10050900E43400F583E0FCA3E0FD744629F582E4B8
:100519003400F583E0FFAB5FAA5E120B970980D325
:0105290022AF
:10063C0020000302072AC2AFE4FFEFC39542501B10
:10064C0074492FF582E43400F583E0FE74062FF52F
:10065C0082E43400F583EEF00F80DFAF4274062F96
:10066C00F582E43400F583E4F0C200D2AFE54270C9
:10067C000302072A7563FF75640D75651E7B017A8D
:10068C00007906AD42120CE6EF6003020724756395
:10069C00FF75640D7565247B017A007906AD4212F5
:1006AC000CE6EF70737563FF75640D75652E7B0139
:1006BC007A007906AD42120CE6EF705C7563FF753B
:1006CC00640D7565347B017A007906AD42120CE637
:1006DC00EF70457563FF75640D75653A7B017A00A3
:1006EC007906AD42120CE6EF702E7563FF75640D42
:1006FC007565417B017A007906AD42120CE6EF700C
:10070C00177563FF75640D7565477B017A00790673
:0E071C00AD42120CE6EF600302029D1203E9EB
:01072A0022AC
:100EFD00538EFE53890F438920758DFD758BFD75BE
:070F0D009850D28ED2AC22F5
:100F6500438E805389F0438901120003D2A9D28CA4
:010F75002259
:03000B000209A047
:1009A000C0E0C0F0C0D075D000C000C002C003C01D
:0709B00004C005C006C007EA
:1009B700120003E5254524702D12072B7A00AF029C
:1009C700D202120DAA0ABA05F5D3E5239400E5224F
:1009D70094004012E523152370021522E5234522D2
:1009E7007004FF12000E7A00EA25E02438F8E6FECC
:1009F70008E6B5250CE524B50607AF02C202120DBD
:100A0700AA0ABA05E30525E52570020524C3E525ED
:0E0A170094E8E524940340067524007525003C
:100A2500D007D006D005D004D003D002D000D0D056
:050A3500D0F0D0E0321A
:03002300020AC608
:0F0AC600C0E0C083C082C0D075D000C006C0079A
:100AD50030984CC298AF99200045BF0A23E521D331
:100AE50094004012AE2174482EF582E43400F5835B
:100AF500E0B40D021521852142752100D200801F29
:100B0500EF601CE521C3943F5012AE2105217449C5
:100B15002EF582E43400F583EFF080037521003073
:040B25009902C299D6
:0D0B2900D007D006D0D0D082D083D0E032EB
:100F2B00120E6B12052A120B36120EFD120F65D222
:060F3B00AF12063C80FB32
:03000000020A3AB7
:0C0A3A00787FE4F6D8FD75816F020A8118
:10002600BB010689828A83E0225002E722BBFE02D8
:09003600E32289828A83E493220B
:10003F00BB010CE58229F582E5833AF583E0225076
:10004F0006E92582F8E622BBFE06E92582F8E222C0
:0D005F00E58229F582E5833AF583E49322DA
:10006C00BB010989828A83F8E028F022500327F724
:10007C0022BBFE05F8E328F3228A838982F8E493F5
:02008C00282228
:10008E00BB010689828A83F0225002F722BBFE0151
:02009E00F3224B
:1000A000EF8DF0A4A8F0CF8CF0A428CE8DF0A42E74
:0200B000FE222E
:1000B200BC000BBE0029EF8DF084FFADF022E4CC32
:1000C200F875F008EF2FFFEE33FEEC33FCEE9DECFB
:1000D200984005FCEE9DFE0FD5F0E9E4CEFD22ED41
:1000E200F8F5F0EE8420D21CFEADF075F008EF2F8B
:1000F200FFED33FD4007985006D5F0F222C398FD7C
:050102000FD5F0EA2218
:10010700C2D5EC30E709B2D5E4C39DFDE49CFCEE13
:1001170030E715B2D5E4C39FFFE49EFE1200B2C3D9
:10012700E49DFDE49CFC80031200B230D507C3E4D4
:060137009FFFE49EFE2282
:10013D00BB0110E58229F582E5833AF583E0F5F000
:10014D00A3E0225009E92582F886F008E622BBFEDD
:10015D000AE92582F8E2F5F008E222E5832AF58323
:08016D00E993F5F0A3E99322E8
:10017500F8BB0111E58229F582E5833AF583E8F0BC
:10018500E5F0A3F0225009E92582C8F608A6F02279
:0D019500BBFE09E92582C8F2E5F008F22260
:1001A20075F008758200EF2FFFEE33FECD33CDCC14
:1001B20033CCC58233C5829BED9AEC99E582984097
:1001C2000CF582EE9BFEED9AFDEC99FC0FD5F0D674
:1001D200E4CEFBE4CDFAE4CCF9A88222B800C1B99E
:1001E2000059BA002DEC8BF084CFCECDFCE5F0CBDC
:1001F200F97818EF2FFFEE33FEED33FDEC33FCEB15
:1002020033FB10D703994004EB99FB0FD8E5E4F9CF
:10021200FA227818EF2FFFEE33FEED33FDEC33FCBC
:10022200C933C910D7059BE99A4007EC9BFCE99AB0
:10023200F90FD8E0E4C9FAE4CCFB2275F010EF2FF5
:10024200FFEE33FEED33FDCC33CCC833C810D707F5
:100252009BEC9AE899400AED9BFDEC9AFCE899F830
:0E0262000FD5F0DAE4CDFBE4CCFAE4C8F922C3
:10027000EC8EF0A4CCC5F0CCCDF8EFA4CEC5F02D1B
:10028000FDE43CFCE8A42EC8C5F03DFDE43CFCEFD9
:0D029000A4FFE5F028FEE43DFDE43CFC2267
:100A4600020F2BE493A3F8E493A34003F68001F28C
:100A560008DFF48029E493A3F85407240CC8C333B1
:100A6600C4540F4420C8834004F456800146F6DF80
:100A7600E4800B0102040810204080900F14E47EED
:100A8600019360BCA3FF543F30E509541FFEE49375
:100A9600A360010ECF54C025E060A840B8E493A33C
:100AA600FAE493A3F8E493A3C8C582C8CAC583CA67
:100AB600F0A3C8C582C8CAC583CADFE9DEE780BE1F
:010F2A0000C6
:00000001FF
