:0F1F35007DA57C06ED1D70011C144C70F7DFF1CB
:011F4400227A
:101BCA00EF25E0FFEE33FEE4FDFCD3ED9FEC9E50E3
:101BDA0008000DBD00010C80F100000000000000AB
:071BEA0000000000000000F4
:011BF10022D1
:101E590030800320C3197F14121F35208004C2A0CB
:101E6900C2C420C304D2A0D2C43080FD30C3FA2238
:101B7000E490024EF0F0C2A0C2C47FC8121F357FAD
:101B8000C8121F35D2A0D2C47FC8121F357FC81219
:0E1B90001F3590024EE004F0E0C3940340D8ED
:011B9E002224
:03001E00C2C92232
:101F450012001E7FC8121F35121F827FC8021F355F
:031F8200D2C9229F
:101E98005573617274312074657374210D0A0000E2
:0E1EA80000000000000000000000000000002C
:100F7B00C104C1034101CD005201F005DC05DC05C4
:100F8B00DC05DC05DC05DC05DC05DC05DC4201935E
:100F9B000000420195000042019700004201CB0086
:0A0FAB00004101EF014201CE03DE18
:10199700E4F5937594FF4391804392C843CA0F437C
:1019A700B2907596CFF59543B4307FE87E03121059
:1019B700B4121EE8121B70121F45121F647F1F7E90
:1019C70000121ADE121F107BFF7A1E7998121A2452
:0819D700121ED012004680F838
:10004600E490024EF0A3F0F9A3C9F0A3F0A3E9F0FF
:1000560078537C027D017BFF7A1E79A77E007F0F95
:1000660012042BE4900262F020030302035AC20337
:100076001217AF9001EEEFF0121EB69001CDEFF021
:100086007F0812000E900195E4F0A3EFF07F0612B0
:10009600000E9001CBE4F0A3EFF0A3E060030203AF
:1000A6005A9001EEE024FBB40C004003020270906B
:1000B60000C375F003A4C58325F0C583730200E76A
:1000C60002014D02010802012C02020D02024E023B
:1000D60001F002022A02016E0201D002018F020122
:1000E600B09001F5E024F1F09001F4E034FFF0D394
:1000F600A3E094209001F4E094034003020270020E
:1001060002699001F5E0240FF09001F4E03400F06C
:10011600C3A3E094989001F4E0940850030202709F
:100126009001F20202459001F3E0240FF09001F2F3
:10013600E03400F0C3A3E094989001F2E0940850F4
:10014600030202700202459001F3E024F1F09001EF
:10015600F2E034FFF0D3A3E094209001F2E09403A0
:1001660040030202700202699001F7E0240FF0904A
:1001760001F6E03400F0C3A3E094989001F6E09411
:100186000850030202700202459001F7E024F1F0E4
:100196009001F6E034FFF0D3A3E094209001F6E05E
:1001A600940340030202700202699001F9E0240FF1
:1001B600F09001F8E03400F0C3A3E094989001F8C1
:1001C600E09408500302027080759001F9E024F172
:1001D600F09001F8E034FFF0D3A3E094209001F80A
:1001E600E09403400302027080799001FBE0240F43
:1001F600F09001FAE03400F0C3A3E094989001FA7D
:10020600E09408406580389001FBE024F1F090010D
:10021600FAE034FFF0D3A3E094209001FAE09403CF
:100226005048803F9001FDE0240FF09001FCE0343F
:1002360000F0C3A3E094989001FCE09408402B746E
:1002460008F0A37498F080229001FDE024F1F0906C
:1002560001FCE034FFF0D3A3E094209001FCE0948D
:100266000350077403F0A37420F0900195E0FEA3F9
:10027600E0FFD3946EEE64809480400FD3EF9492A7
:10028600EE648094805004E4FF8050900195E0FE77
:10029600A3E0FFC3EE648094804015D3EF946EEE26
:1002A60064809480500A9001CEE0FEA3E0FF802C8B
:1002B600900195E0FEA3E0FFD39492EE64809480D3
:1002C600401DD3EF94FFEE6480948050129001CECF
:1002D600E0FEA3E0FFC3E49FFFE49EFE121B109026
:1002E60001CBE0FEA3E0FFD3946EEE6480948040E1
:1002F6000FD3EF9492EE648094805004E4FF805014
:100306009001CBE0FEA3E0FFC3EE6480948040152D
:10031600D3EF946EEE64809480500A9001CEE0FE96
:10032600A3E0FF802C9001CBE0FEA3E0FFD39492E4
:10033600EE64809480401DD3EF94FFEE6480948039
:1003460050129001CEE0FEA3E0FFC3E49FFFE49EBF
:04035600FE121B4038
:01035A002280
:1010B40053943F53933F53803F5396F15395F153C9
:1010C400A0F153B27F53B17F53B07F43BA8090FFF6
:1010D400F27401F090FFF0EEF0A3EFF090FF00E463
:1010E400F0A304F0A3E4F0A3F0A3F090FF10F0A3A6
:1010F40004F0A3E4F0A3F0A3F090FF20F0A304F025
:10110400A3E4F0A3F0A3F090FF30F0A304F0A3E471
:10111400F0A3F0A3F090FF40F0A304F0A3E4F0A345
:10112400F0A37408F090FF50E4F0A304F0A3E4F0FB
:10113400A3F0A37408F0E4F5F175F53F43F580538B
:03114400BA7F224D
:101BF200EF4E700653F5FEC2B722BE0309BFE806D8
:101C020053F5FED2B72243BA8090FF00EEF0A3EF65
:081C1200F053BA7F43F50122F3
:101C1A00EF4E700653F5FDC2A122BE0309BFE806C6
:101C2A0053F5FDD2A12243BA8090FF10EEF0A3EF44
:081C3A00F053BA7F43F50222CA
:101C4200EF4E700653F5FBC2A222BE0309BFE8069F
:101C520053F5FBD2A22243BA8090FF20EEF0A3EF0D
:081C6200F053BA7F43F50422A0
:101C6A00EF4E700653F5F7C2A322BE0309BFE8067A
:101C7A0053F5F7D2A32243BA8090FF30EEF0A3EFD8
:081C8A00F053BA7F43F5082274
:101B1000AD07AC06C3EC64809480400A121BF27FD0
:101B2000017E00121C1AC3EC6480948050117F0166
:101B30007E00121BF2C3E49DFFE49CFE121C1A22DD
:101B4000AD07AC06C3EC64809480400A121C427F4F
:101B5000017E00121C6AC3EC6480948050117F01E6
:101B60007E00121C42C3E49DFFE49CFE121C6A220C
:10101C003C425550443E0042555044003C42444EE4
:10102C00443E0042444E44003C424C54443E004238
:10103C004C5444003C425254443E004252544400EE
:10104C00425541440042554D440042554B440042E8
:10105C00555344004255534E003C424C54553E00AF
:10106C003C42444E553E003C425550553E003C429D
:10107C005254553E0042535444003C5355502D009D
:10108C003C534C542D003C53444E2D003C53525475
:10109C002D003C53444C2D003C5344522D00616EAA
:0810AC00676C65003C5A4C0022
:100FB50050028105DC05DC05DC05DC05DC05DC050E
:030FC500DC05DC6C
:10181700900251EBF0A3EAF0A3E9F090025774FFAE
:10182700F0A37410F0A3741CF0A3E4F0A37406F003
:10183700900251E0FBA3E0FAA3E0F912125AEF601D
:101847002690025774FFF0A37410F0A37423F0A33B
:10185700E4F0A37404F0900251E0FBA3E0FAA3E0E4
:10186700F912125AEF70057E007F0122E4FEFF2273
:10187700900251EBF0A3EAF0A3E9F090025774FF4E
:10188700F0A37410F0A37428F0A3E4F0A37406F097
:10189700900251E0FBA3E0FAA3E0F912125AEF60BD
:1018A7002690025774FFF0A37410F0A3742FF0A3CF
:1018B700E4F0A37404F0900251E0FBA3E0FAA3E084
:1018C700F912125AEF70057E007F0122E4FEFF2213
:1018D700900251EBF0A3EAF0A3E9F090025774FFEE
:1018E700F0A37410F0A37434F0A3E4F0A37406F02B
:1018F700900251E0FBA3E0FAA3E0F912125AEF605D
:101907002690025774FFF0A37410F0A3743BF0A362
:10191700E4F0A37404F0900251E0FBA3E0FAA3E023
:10192700F912125AEF70057E007F0122E4FEFF22B2
:10193700900251EBF0A3EAF0A3E9F090025774FF8D
:10194700F0A37410F0A37440F0A3E4F0A37406F0BE
:10195700900251E0FBA3E0FAA3E0F912125AEF60FC
:101967002690025774FFF0A37410F0A37447F0A3F6
:10197700E4F0A37404F0900251E0FBA3E0FAA3E0C3
:10198700F912125AEF70057E007F0122E4FEFF2252
:101C920090025774FFF0A37410F0A3744CF0A3E405
:101CA200F0A37404F012125AEF7004FE7F0122E4D2
:031CB200FEFF2210
:101CB50090025774FFF0A37410F0A37451F0A3E4DD
:101CC500F0A37404F012125AEF7004FE7F0122E4AF
:031CD500FEFF22ED
:101CD80090025774FFF0A37410F0A37456F0A3E4B5
:101CE800F0A37404F012125AEF7004FE7F0122E48C
:031CF800FEFF22CA
:101CFB0090025774FFF0A37410F0A3745BF0A3E48D
:101D0B00F0A37404F012125AEF7004FE7F0122E468
:031D1B00FEFF22A6
:101D1E0090025774FFF0A37410F0A37460F0A3E464
:101D2E00F0A37404F012125AEF7004FE7F0122E445
:031D3E00FEFF2283
:100DE700900251EBF0A3EAF0A3E9F090025774FFE9
:100DF700F0A37410F0A37465F0A3E4F0A37406F0F5
:100E0700900251E0FBA3E0FAA3E0F912125AEF7047
:100E170003020EB390025774FFF0A37410F0A3748B
:100E27006CF0A3E4F0A37406F0900251E0FBA3E09A
:100E3700FAA3E0F912125AEF607290025774FFF0AA
:100E4700A37410F0A37473F0A3E4F0A37406F090F6
:100E57000251E0FBA3E0FAA3E0F912125AEF604C4B
:100E670090025774FFF0A37410F0A3747AF0A3E410
:100E7700F0A37406F0900251E0FBA3E0FAA3E0F9B7
:100E870012125AEF602690025774FFF0A37410F005
:100E9700A37481F0A3E4F0A37404F0900251E0FB83
:100EA700A3E0FAA3E0F912125AEF70057E007F0162
:050EB70022E4FEFF2211
:101D410090025774FFF0A37410F0A37486F0A3E41B
:101D5100F0A37405F012125AEF7004FE7F0122E421
:031D6100FEFF2260
:101D640090025774FFF0A37410F0A3748CF0A3E4F2
:101D7400F0A37405F012125AEF7004FE7F0122E4FE
:031D8400FEFF223D
:101D870090025774FFF0A37410F0A37492F0A3E4C9
:101D9700F0A37405F012125AEF7004FE7F0122E4DB
:031DA700FEFF221A
:101DAA0090025774FFF0A37410F0A37498F0A3E4A0
:101DBA00F0A37405F012125AEF7004FE7F0122E4B8
:031DCA00FEFF22F7
:101DCD0090025774FFF0A37410F0A3749EF0A3E477
:101DDD00F0A37405F012125AEF7004FE7F0122E495
:031DED00FEFF22D4
:101DF00090025774FFF0A37410F0A374A4F0A3E44E
:101E0000F0A37405F012125AEF7004FE7F0122E471
:031E1000FEFF22B0
:101E130090025774FFF0A37410F0A374AAF0A3E424
:101E2300F0A37405F012125AEF7004FE7F0122E44E
:031E3300FEFF228D
:101E360090025774FFF0A37410F0A374B0F0A3E4FB
:101E4600F0A37403F012125AEF7004FE7F0122E42D
:031E5600FEFF226A
:0B12E100900251EBF0A3EAF0A3E9F04B
:1012EC00A3EBF0A3EAF0A3E9F090025A74FFF0A389
:1012FC007410F0A37486F0900251E0FBA3E0FAA303
:10130C00E0F9120EBC900254EBF0A3EAF0A3E9F062
:10131C00900254E0FBA3E0FAA3E04A4B6037900242
:10132C0054A3A3E0F97D2D120026900254EBF0A3F8
:10133C00EAF0A3E9F0900255E475F0011204CB90A9
:10134C000254E0FBA3E0FAA3E0F9120BE99001F2DE
:05135C00EEF0A3EFF02C
:011361002269
:0B136200900251EBF0A3EAF0A3E9F0C9
:10136D00A3EBF0A3EAF0A3E9F090025A74FFF0A307
:10137D007410F0A3748CF0900251E0FBA3E0FAA37B
:10138D00E0F9120EBC900254EBF0A3EAF0A3E9F0E1
:10139D00900254E0FBA3E0FAA3E04A4B60379002C1
:1013AD0054A3A3E0F97D2D120026900254EBF0A377
:1013BD00EAF0A3E9F0900255E475F0011204CB9028
:1013CD000254E0FBA3E0FAA3E0F9120BE99001F45B
:0513DD00EEF0A3EFF0AB
:0113E20022E8
:0B13E300900251EBF0A3EAF0A3E9F048
:1013EE00A3EBF0A3EAF0A3E9F090025A74FFF0A386
:1013FE007410F0A37492F0900251E0FBA3E0FAA3F4
:10140E00E0F9120EBC900254EBF0A3EAF0A3E9F05F
:10141E00900254E0FBA3E0FAA3E04A4B603790023F
:10142E0054A3A3E0F97D2D120026900254EBF0A3F5
:10143E00EAF0A3E9F0900255E475F0011204CB90A6
:10144E000254E0FBA3E0FAA3E0F9120BE99001F6D7
:05145E00EEF0A3EFF029
:011463002266
:0B146400900251EBF0A3EAF0A3E9F0C6
:10146F00A3EBF0A3EAF0A3E9F090025A74FFF0A304
:10147F007410F0A37498F0900251E0FBA3E0FAA36C
:10148F00E0F9120EBC900254EBF0A3EAF0A3E9F0DE
:10149F00900254E0FBA3E0FAA3E04A4B60379002BE
:1014AF0054A3A3E0F97D2D120026900254EBF0A374
:1014BF00EAF0A3E9F0900255E475F0011204CB9025
:1014CF000254E0FBA3E0FAA3E0F9120BE99001F854
:0514DF00EEF0A3EFF0A8
:0114E40022E5
:0B14E500900251EBF0A3EAF0A3E9F045
:1014F000A3EBF0A3EAF0A3E9F090025A74FFF0A383
:101500007410F0A3749EF0900251E0FBA3E0FAA3E4
:10151000E0F9120EBC900254EBF0A3EAF0A3E9F05C
:10152000900254E0FBA3E0FAA3E04A4B603790023C
:1015300054A3A3E0F97D2D120026900254EBF0A3F2
:10154000EAF0A3E9F0900255E475F0011204CB90A3
:101550000254E0FBA3E0FAA3E0F9120BE99001FAD0
:05156000EEF0A3EFF026
:011565002263
:0B156600900251EBF0A3EAF0A3E9F0C3
:10157100A3EBF0A3EAF0A3E9F090025A74FFF0A301
:101581007410F0A374A4F0900251E0FBA3E0FAA35D
:10159100E0F9120EBC900254EBF0A3EAF0A3E9F0DB
:1015A100900254E0FBA3E0FAA3E04A4B60379002BB
:1015B10054A3A3E0F97D2D120026900254EBF0A371
:1015C100EAF0A3E9F0900255E475F0011204CB9022
:1015D1000254E0FBA3E0FAA3E0F9120BE99001FC4D
:0515E100EEF0A3EFF0A5
:0115E60022E2
:0B08A100900251EBF0A3EAF0A3E9F095
:1008AC00E4A3F0A3F0A3F0A3F0A3F0A3F0A3F0A3B0
:1008BC00F0A3F0A3F0A3F0A3F0A3F0900251E0FB9F
:1008CC00A3E0FAA3E0F990025FE0FEA3E0FFF5825B
:1008DC008E8312046AFD640A7003020AABC3EF94A0
:1008EC00F4EE94014003020AAB90025CE0640170E8
:1008FC0021ED6450601790025F12166F900259EF51
:10090C00F0900254E075F00AA42FF08005E49002F8
:10091C005CF090025DE0640160030209CF9002512B
:10092C00E0FBA3E0FAA3E0F990025FE0FEA3E0F5A0
:10093C00828E8312046AFF642360047E0180027E2F
:10094C0000EF645460047F0180027F00EF5E60263C
:10095C0012165F90025AEFF0FB900255E0FEA3E0F6
:10096C00FF7C007D0A1204B9EB2FFFEC3E90025580
:10097C00F0A3EFF0804DE490025DF0D3900256E0CE
:10098C0094C4900255E0940940077409F0A374C410
:10099C00F0900255E0FEA3E0FF900254E0FD25E04C
:1009AC002481F582E43402F583EEF0A3EFF0EDFF41
:1009BC0090027FE4F0A3EFF0E4900255F0A3F090E6
:1009CC000254F090025EE064016003020A631216A6
:1009DC005F90025BEFF0FB900257E0FEA3E0FF7C20
:1009EC00007D0A1204B9EB2FFFEC3EFE900257F08B
:1009FC00A3EFF0900281EEF0A3EFF0900251E0FB38
:100A0C00A3E0FAA3E0F9900260E02401FF90025FFA
:100A1C00E034008F82F58312046AB40D3AD390024D
:100A2C0058E09464900257E09400502B900280E0C0
:100A3C0025E0FF90027FE033FE74812FF582740273
:100A4C003EF583E0FCA3E0FD74F02FF58274013ECB
:100A5C00F583ECF0A3EDF0900251E0FBA3E0FAA3D8
:100A6C00E0F990025FE0FEA3E0F5828E8312046A47
:100A7C00FFB4230690025C7401F0EFB450069002B0
:100A8C005D7401F0EFB4540690025E7401F09002B4
:0F0A9C0060E004F0700690025FE004F00208C70B
:010AAB002228
:10165F00900251E0FBA3E0FAA3E0F990025FE0FEF5
:0A166F00A3E0F5828E8312046AFFE7
:10167900EF24D0B40A00505290168F75F003A4C518
:101689008325F0C583730216AD0216B10216B502A1
:1016990016B90216BD0216C10216C50216C90216EE
:1016A900CD0216D1E4F980227901801E7902801ACF
:1016B90079038016790480127905800E7906800AEB
:0C16C90079078006790880027909AF01DA
:0116D50022F2
:10065F0090024EEBF0A3EAF0A3E9F090024EE0FB1C
:10066F00A3E0FAA3E0F9121817EF4E600A9001CE3B
:10067F00E0FEA3E0FF807190024EE0FBA3E0FAA33F
:10068F00E0F9121877EF4E60119001CEE0FEA3E073
:10069F00FFC3E49FFFE49EFE801A90024EE0FBA38F
:1006AF00E0FAA3E0F91218D7EF4E601B9001CEE0ED
:1006BF00FEA3E0FF121B109001CEE0FEA3E0FFC3EC
:1006CF00E49FFFE49E804890024EE0FBA3E0FAA374
:1006DF00E0F9121937EF4E601C9001CEE0FEA3E057
:1006EF00FFC3E49FFFE49EFE121B109001CEE0FEBD
:1006FF00A3E0FF801B90024EE0FBA3E0FAA3E0F91A
:10070F00120DE7EF4E600CE4FFFE121B10E4FFFE2C
:10071F00021B4090024EE0FBA3E0FAA3E0F9121D8A
:10072F0041EF4E600E90024EE0FBA3E0FAA3E0F91A
:10073F000212E190024EE0FBA3E0FAA3E0F9121DD2
:10074F0064EF4E600E90024EE0FBA3E0FAA3E0F9D7
:10075F0002136290024EE0FBA3E0FAA3E0F9121D30
:10076F0087EF4E600E90024EE0FBA3E0FAA3E0F994
:10077F000213E390024EE0FBA3E0FAA3E0F9121D8F
:10078F00AAEF4E600E90024EE0FBA3E0FAA3E0F951
:10079F0002146490024EE0FBA3E0FAA3E0F9121DED
:1007AF00CDEF4E600E90024EE0FBA3E0FAA3E0F90E
:1007BF000214E590024EE0FBA3E0FAA3E0F9121D4C
:1007CF00F0EF4E600E90024EE0FBA3E0FAA3E0F9CB
:1007DF0002156690024EE0FBA3E0FAA3E0F9121CAB
:1007EF0092EF4E60289001CFE02464F09001CEE0AC
:1007FF003400F0C3A3E094E89001CEE064809483CA
:10080F0050030208A07403F0A374E8F02290024E84
:10081F00E0FBA3E0FAA3E0F9121CB5EF4E602590C0
:10082F0001CFE0249CF09001CEE034FFF0D3A3E0A1
:10083F0094BC9001CEE06480948250557402F0A372
:10084F0074BCF02290024EE0FBA3E0FAA3E0F91291
:10085F001CFBEF4E6003B2C92290024EE0FBA3E0F7
:10086F00FAA3E0F9121D1EEF4E6003021F829002E1
:10087F004EE0FBA3E0FAA3E0F9121CD8EF4E6003A1
:10088F00B2A02290024EE0FBA3E0FAA3E0F9120817
:02089F00A12294
:0D0FC800410292004202930000410291019B
:0B1F6400D2AF438EC0438911D2A922E6
:101ADE00C3EF940EEE940050047E007F0E7C007DCA
:101AEE00161204B9AD07AC06749C2DFD74FF3CFCB8
:101AFE00C374FF9DFD74FF9CF58CAF05EFF58AD284
:011B0E008C4A
:011B0F0022B3
:101F1000438E4053890F758B9A758DA9C28FD28ECF
:031F2000D2AB221F
:03000B00020AAC3A
:100AAC00C0E0C0F0C083C082C0D075D000C000C010
:070ABC0004C005C006C007DD
:100AC300900291E014B410004003020BCE900ADEB2
:100AD30075F003A4C58325F0C58373020B0E020BC7
:100AE30016020B2A020B31020B44020B4B020B5E64
:100AF300020B65020B78020B7F020B92020B9E0224
:100B03000BB3020BB9020BB3020BC2D2C89001F2B2
:100B1300020B97C2C89001F2E0FEA3E0FFC3741E6C
:100B23009FFF740A020BAFD2B49001F48066C2B483
:100B33009001F4E0FEA3E0FFC374C49FFF74098037
:100B43006BD2849001F6804CC2849001F6E0FEA340
:100B5300E0FFC374C49FFF74098051D2CB9001F8A6
:100B63008032C2CB9001F8E0FEA3E0FFC374C49FC0
:100B7300FF74098037D2859001FA8018C2859001ED
:100B8300FAE0FEA3E0FFC374C49FFF7409801DD283
:100B9300CA9001FCE0FEA3E0FF801FC2CA9001FCE3
:100BA300E0FEA3E0FFC374C49FFF74099EFE800AA6
:100BB3007FF47E0180047FD07E07121ADE800C7FD3
:100BC300D07E07121ADE900291E4F0900291E004C5
:010BD300F031
:100BD400D007D006D005D004D000D0D0D082D083A6
:050BE400D0F0D0E0326A
:03001B000219DFE8
:1019DF00C0E0C083C082C0D0900292E004F09002B9
:1019EF0094E004F07006900293E004F0900292E00D
:1019FF00B45A04D203E4F0900293E0B4010EA3E0D2
:101A0F00B4F409B2C4900293E4F0A3F0D0D0D08222
:051A1F00D083D0E0328D
:101B9F000D0A00000000000000000000000000001F
:101BAF000000000000000000000000000000000026
:0B1BBF0000000000000000000000001B
:0D0FD500C101C10242019100004100000075
:101EE80043985075D7D075D6FF438E15E4F587D241
:041EF800AFD2AC2297
:101F2300759A5075D7D075D6FF75AF01D2AF43BA46
:021F3300012289
:080003008F993099FDC299228A
:0B1A240090024EEBF0A3EAF0A3E9F003
:101A2F00E4FDFC90024EE0FBA3E0FAA3E0F9120400
:101A3F00516022C3EC9401501C90024EA3E475F048
:101A4F00011204E1A9F0FA120451FF1200030DBDB7
:051A5F0000010C80CE27
:011A6400225F
:100CF5009002311205C5900235EBF0A3EAF0A3E9A5
:010D0500F0FD
:100D060078387C027D017BFF7A1B79A27E007F14F6
:100D160012042BE490024CF0A3F090024CF09002E7
:100D260031E0FCA3E0FDA3E0FEA3E0FFEC4D4E4F57
:100D36006048E47B0AFAF9F8900231A3A3A3E01213
:100D46000533EB2430FF90024CE02438F582E4347E
:100D560002F583EFF090024CE004F0900231E0FCE3
:100D6600A3E0FDA3E0FEA3E0FFE47B0AFAF9F81294
:100D760005339002311205C580A490024CE0A3F021
:100D8600E490024CF090024DE0FF90024CE0FEC36E
:100D96009F5036EEFDC3EF9DFFE49400FE74372F9F
:100DA600F58274023EF583E0FF900235E0FBA3E096
:100DB600FAA3E0F990024CE0F582758300EF120485
:100DC6009790024CE004F080BC900235E0FBA3E073
:100DD600FAA3E0F990024CE0F582758300E4020480
:010DE6009775
:081AA600900269EEF0A3EFF0DD
:101AAE00786B7C027D017BFF7A1B79B67E007F14FA
:101ABE0012042B900269E0FEA3E0FFE4FCFD7B0123
:101ACE007A02796B120CF57B017A02796B021A2479
:101E7900900298ECF0A3EDF0121A24900298E0FE7B
:0F1E8900A3E0FF121AA67BFF7A1B799F021A248F
:081F7A00D2028F9B2002FD2220
:0B1A6500900295EBF0A3EAF0A3E9F07B
:101A7000E4FDFC900295E0FBA3E0FAA3E0F9120478
:101A8000516022C3EC9401501C900295A3E475F0C0
:101A9000011204E1A9F0FA120451FF121F7A0DBDE0
:051AA00000010C80CEE6
:011AA500221E
:030023000215E7DC
:0B15E700C0E0C083C082C0D075D008F7
:1015F200E4FF30985DAF99C298200058900191E0C5
:10160200FCA3E02401F58274003CF583EFF0900125
:1016120092E004F07006900191E004F0900191E0F4
:10162200FEA3E02400F58274003EF583E0FF643EF1
:101632006004EFB40A1E900191E0FEA3E02401F5DC
:101642008274003EF583E4F0D200900191F0A3F0A1
:041652008002C299B7
:09165600D0D0D082D083D0E03264
:030043000216D6CC
:0B16D600C0E0C083C082C0D075D00807
:1016E100E4FFE59A30E048539AFEAF9B200440EFB7
:1016F100B42319900000E4F0E0FD3395E0FC749907
:101701002DF58274013CF583EFF08008EFB40D04F0
:10171100D2047F00900000E0FD3395E0FC74992D28
:10172100F58274013CF583EFF0900000E004F0E5F0
:091731009A30E105539AFDC20251
:09173A00D0D0D082D083D0E0327F
:101ED0003000147B017A007901121A24C2007B01C0
:081EE0007A00790112065F226D
:100FE2004202040142490228000000000000000001
:100FF2000060200206000100020003000400050058
:1010020006000700080009000A000B000C000D0092
:091012000E000F00104102030161
:07174300C2A7900204E0FFC1
:05174A00900266EFF0C3
:10174F00A3E4F0A304F0E4900229F0900267F0A361
:10175F0004F0C3900267E094015044900266E0FFEA
:10176F00A3A3E05F6004D2C58002C2C5D2A67F32B8
:10177F007E00121BCAC2A67F327E00121BCAD2A6DF
:10178F0030C20D900267E0A3E0FF900229E04FF016
:0F179F00900268E025E0F0900267E033F080B33D
:0117AE002218
:101EB600121743900205E0FF12174AD2A790022993
:0A1EC600E0B473037F00227F0122C5
:1011D300E4900263F0A3F0A304F012174390020516
:1011E300E0FF12174A9002637402F0900264E4F085
:1011F300A304F0C3900264E094015045D2A6C2A6B2
:101203007F327E00121BCAD2A630C226900264E04F
:10121300A3E0FF900263E02428F582E43402F5831F
:10122300E04FFF900263E02428F582E43402F58363
:10123300EFF0900265E025E0F0900264E033F08087
:10124300B27F327E00121BCA900263E004F0E0C357
:0612530094094097D2A7A8
:011259002272
:1017AF00121F6F1211D390022CE0FE90022BE0FD5E
:1017BF00EDFF900226EEF0A3EFF0E4FDED25E0241F
:1017CF0006F582E43402F583A3E014FC74017E0075
:1017DF00A804088005C333CE33CED8F9FF90022674
:1017EF00E0FAA3E0FBEA5EFEEB5F4E701304A80481
:1017FF00088002C333D8FC5B900203F0ED04FF2294
:07180F000DEDB410B77F00DE
:0118160022AF
:0D000E0074282FF582E43402F583E0FF2210
:0A1F6F007F09900228E4F0A3DFFCD4
:011F79002245
:03000000021147A3
:0C114700787FE4F6D8FD75812002118E3F
:10035B00E709F608DFFA8046E709F208DFFA803E84
:10036B0088828C83E709F0A3DFFA8032E309F60871
:10037B00DFFA8078E309F208DFFA807088828C83D9
:10038B00E309F0A3DFFA806489828A83E0A3F6088D
:10039B00DFFA805889828A83E0A3F208DFFA804C67
:1003AB0080D280FA80C680D4806980F2803380103E
:1003BB0080A680EA809A80A880DA80E280CA8033A7
:1003CB0089828A83ECFAE493A3C8C582C8CCC5831F
:1003DB00CCF0A3C8C582C8CCC583CCDFE9DEE780EF
:1003EB000D89828A83E493A3F608DFF9ECFAA9F06E
:1003FB00EDFB2289828A83ECFAE0A3C8C582C8CCC4
:10040B00C583CCF0A3C8C582C8CCC583CCDFEADEDC
:10041B00E880DB89828A83E493A3F208DFF980CC3E
:10042B0088F0EF60010E4E60C388F0ED2402B40437
:10043B000050B9F582EB2402B4040050AF232345DE
:06044B0082239003AB7355
:10045100BB010689828A83E0225002E722BBFE02A9
:09046100E32289828A83E49322DC
:10046A00BB010CE58229F582E5833AF583E0225047
:10047A0006E92582F8E622BBFE06E92582F8E22291
:0D048A00E58229F582E5833AF583E49322AB
:10049700F8BB010DE58229F582E5833AF583E8F09B
:1004A700225006E92582C8F622BBFE05E92582C847
:0204B700F2222F
:1004B900EF8DF0A4A8F0CF8CF0A428CE8DF0A42E57
:0204C900FE2211
:1004CB00C5F0F8A3E028F0C5F0F8E58215827002BC
:0604DB001583E038F02259
:1004E100A3F8E0C5F025F0F0E582158270021583CE
:0604F100E0C838F0E8222B
:1004F70075F008758200EF2FFFEE33FECD33CDCCBC
:1005070033CCC58233C5829BED9AEC99E58298403E
:100517000CF582EE9BFEED9AFDEC99FC0FD5F0D61B
:10052700E4CEFBE4CDFAE4CCF9A88222B800C1B945
:100537000059BA002DEC8BF084CFCECDFCE5F0CB83
:10054700F97818EF2FFFEE33FEED33FDEC33FCEBBC
:1005570033FB10D703994004EB99FB0FD8E5E4F977
:10056700FA227818EF2FFFEE33FEED33FDEC33FC64
:10057700C933C910D7059BE99A4007EC9BFCE99A58
:10058700F90FD8E0E4C9FAE4CCFB2275F010EF2F9D
:10059700FFEE33FEED33FDCC33CCC833C810D7079D
:1005A7009BEC9AE899400AED9BFDEC9AFCE899F8D8
:0E05B7000FD5F0DAE4CDFBE4CCFAE4C8F9226B
:0C05C500ECF0A3EDF0A3EEF0A3EFF022A9
:10125A00900254EBF0A3EAF0A3E9F0900257E0FB06
:10126A00A3E0FAA3E0F9120451FE900254E0FBA3B2
:10127A00E0FAA3E0F9120451FF6E702AEF600E90B3
:10128A00025A74FFF5F01204CB45F070037F002276
:10129A00900255E475F0011204CB900258E475F0FF
:1012AA00011204CB80B5900254E0FBA3E0FAA3E05C
:1012BA00F9120451FDD3EE6480F8ED64809840037E
:1012CA007F0122900257E0FBA3E0FAA3E0F912049F
:0712DA0051FFC3ED9FFF224D
:10002600E94A4B700122120451FF6D700122EF70F4
:0C00360004FBFAF92209E970ED0A80EAE7
:100EBC00900257EBF0A3EAF0A3E9F0A3E0FBA3E068
:100ECC00FAA3E0F91204517003020F68900257E084
:100EDC00FBA3E0FAA3E0F91204517003020F749023
:100EEC00025AE0F9A3E0FAA3E0A3C9F0A3EAF0A345
:100EFC00E9F0900257A3E0FAA3E0F9900260EBF05E
:100F0C00A3EAF0A3E9F090025DE0FBA3E0FAA3E012
:100F1C00F9120451FF6026900260E0FBA3E0FAA3F3
:100F2C00E0F91204516F701590025E75F001120415
:100F3C00CB900261E475F0011204CB80C990025D84
:100F4C00E0FBA3E0FAA3E0F91204517002800D90CB
:100F5C000258E475F0011204CB020ED8900257E04F
:0F0F6C00FBA3E0FAA3E0F9227B007A00790022D0
:100BE900900257EBF0A3EAF0A3E9F0900257E0FB7B
:100BF900A3E0FAA3E0F9120451FF121EFC500C9075
:100C09000258E475F0011204CB80E0D20590025736
:100C1900E0FBA3E0FAA3E0F9120451FF642B60049E
:100C2900EFB42D1D900257E0FBA3E475F001120407
:100C3900E1A9F0FA120451642D6003D38001C39233
:100C49000590025A12062E00000000900257E0FBA0
:100C5900A3E0FAA3E0F9120451FF121F555068E40A
:100C69007F0AFEFDFC90025AE0F8A3E0F9A3E0FA3E
:100C7900A3E0FB1205D1C8ECC8EDC0E0EEC0E0EF7F
:100C8900C0E0900257E0FBA3E0FAA3E0F912045197
:100C9900FF3395E0FEEF24D0FFEE34FFFEE4FCFDC8
:100CA900D0E0FBD0E0FAD0E0F9EB2FFFEA3EFEED11
:100CB90039FDEC38FC90025A1205C5900258E475CA
:100CC900F0011204CB808430051090025AE0FCA395
:100CD900E0FDA3E0FEA3E0FF801190025AE0FCA32F
:0C0CE900E0FDA3E0FEA3E0FF12062022C5
:10115300021997E493A3F8E493A34003F68001F202
:1011630008DFF48029E493A3F85407240CC8C3339D
:10117300C4540F4420C8834004F456800146F6DF6C
:10118300E4800B0102040810204080900F7BE47E72
:10119300019360BCA3FF543F30E509541FFEE49361
:1011A300A360010ECF54C025E060A840B8E493A328
:1011B300FAE493A3F8E493A3C8C582C8CAC583CA53
:1011C300F0A3C8C582C8CAC583CADFE9DEE780BE0B
:01101B0000D4
:1005D100E88FF0A4CC8BF0A42CFCE98EF0A42CFCC9
:1005E1008AF0EDA42CFCEA8EF0A4CDA8F08BF0A447
:1005F1002DCC3825F0FDE98FF0A42CCD35F0FCEBA6
:100601008EF0A4FEA9F0EB8FF0A4CFC5F02ECD396A
:0F061100FEE43CFCEAA42DCE35F0FDE43CFC22D7
:0E062000C3E49FFFE49EFEE49DFDE49CFC22EB
:10062E00A8828583F0D083D0821206451206451229
:10063E000645120645E473E493A3C583C5F0C5834E
:10064E00C8C582C8F0A3C583C5F0C583C8C582C816
:01065E002279
:0F1F5500EFC394304007EF943A50028001C3224B
:101EFC00EFC394094005EF940E4004EFB42003D3D4
:041F0C008001C3226B
:00000001FF
