:102F59002332353550313530305431300D0A007057
:102F690073325F6B65790025644B0023315025640A
:102F790054310D0A0023325025645431300D0A00B2
:102F890023335025645431300D0A0023345025640D
:102F99005431300D0A0023355025645431300D0A5F
:102FA9000023365025645431300D0A0023537461CF
:102FB90072740D0A0023456E640D0A0023414746C9
:102FC9000D0A002343430D0A0023446F776E2B4FEC
:102FD9004B2B25640D0A0023566572692B55415206
:102FE900542B4F4B2B32303136303930362B313769
:102FF900360D0A0023004E616D653A25642E7478FA
:10300900742D2D53697A653A25642D2D000D0A001A
:10301900230D0A0023456E61626C652B4F4B2E2EE2
:103029002E0D0A002344697361626C652B4F4B2E88
:103039002E2E0D0A00234F4B0D0A0023256447430A
:1030490025640D0A00234C503D300D0A00234644E7
:10305900656C2B4F4B0D0A0023466F726D61742B03
:1030690053746172740D0A0023466F726D61742B7B
:103079004F4B0D0A00235053322B4F4B2E2E2E0D42
:103089000A002325645025640023256450554C4BC0
:103099000D0A00232564504D4F4425640D0A002371
:1030A900323535504D4F4425642B304B2E2E2E0D85
:1030B9000A0023464D51454E41424C452B4F4B2E5C
:1030C9002E2E0D0A0023464D5144495341424C4589
:1030D9002B4F4B2E2E2E0D0A000000000000000081
:1030E90000000000000000000000000000000000D7
:1030F90000000000000000000000000000000000C7
:1031090000000000000000000000000000000000B6
:10246D00C10A607E016A03E805DC05DC05DC05DCDC
:10247D0005DC05DC05DC05DC03E805DC05DC05DC3D
:10248D0005DC05DC05DC05DC05DC03E805DC05DC2D
:10249D0005DC05DC05DC05DC05DC05DC03E801F409
:1024AD0001F401F401F401F401F401F401F403E881
:1024BD0005DC05DC05DC05DC05DC05DC05DC05DC07
:1024CD0003E801F401F401F401F401F401F401F461
:1024DD0001F403E805DC05DC05DC05DC05DC05DCC9
:1024ED0005DC05DC5201EC05DC05DC05DC05DC0555
:1024FD00DC05DC05DC05DC05DC52011205DC05DC48
:10250D0005DC05DC05DC05DC05DC05DC05DC610135
:10251D00024100000000000000000000000000006B
:10252D00000000000000000000000000000000009E
:10253D00000000000000000000000000000000008E
:10254D00000000000000000000000000000000007E
:10255D00000000000000000000000000000000006E
:10256D00000000000000000000000000000000005E
:10257D00000000000000000000000000000000004E
:10258D00000000000000000000000000000000003E
:10259D00000000000000000000000000000000002E
:1025AD00000000000000000000000000000000001E
:1025BD00000000000000000000000000000000000E
:1025CD0000000000000000000000000000000000FE
:1025DD0000000000000000000000000000000000EE
:1025ED0000000000000000000000000000000000DE
:1025FD0000000000000000000000000000000000CE
:10260D0000000000000000000000000000000000BD
:10261D000000004100680041020A004101660141CD
:10262D00020B02C10FC18841016700C18BC10CC1F2
:10263D000942021003E842020E000160240010005E
:10264D00000000000000000000000000000000007D
:10265D00000000000000000000000000000000006D
:10266D00000000C10DC102C104C100C106C103C1FA
:10267D000EC107C105440096000000004201240070
:10268D0000C101410069006020014500000000000B
:10269D00000000000000000000000000000000002D
:1026AD000000000000000000000000420168000072
:1026BD0042020C00006078009A000000000000004B
:1026CD0000000000000000000000000000000000FD
:1026DD0000000000000000000000000000000000ED
:1026ED0000000000000000000000000000000000DD
:1026FD0000000000000000000000000000000000CD
:10270D0000000000000000000000000000000000BC
:10271D0000000000000000000000000000000000AC
:10272D00000000000000000000000000000000009C
:10273D0000603200340000000000000000000000C6
:10274D00000000000000000000000000000000007C
:10275D00000000000000000000000000000000006C
:10276D00000000000000004201FE00004101650074
:10277D00410067014100660042000405DC4200068D
:10278D0005DC42000805DC42000A05DC42000C05B0
:0B279D00DC42000E064042000000007D
:10412D00E4FF90036FF074FF90020CF0A3F0123EC9
:10413D004AE4FF900093E0FEEFC39E5030746B2F66
:10414D00F582E43400F583E0B4011F90036FE024A1
:10415D0045F582E43401F583EFF090036FE004F050
:10416D00EFFD90020CE4F0A3EDF00F80C690036F0D
:0A417D00E0FF900168E4F0A3EFF00A
:014187002215
:1043F100123E4A12412D7E007F097D007B017A0227
:0E440100790112091F900095E0900067F022EB
:103A5D00E4900342F0A3F0F5937594FF43918043F6
:103A6D0092C843CA0F43B2107596C1F59543B43051
:103A7D0012000E7F1F7E001242891245F0124188FE
:103A8D00900342EEF0A3EFF064167003EE64EF6066
:103A9D000512460880E712460F1243F11244A31295
:103AAD00450712452B7F071244DF1244CB7BFF7A6B
:103ABD002F7959124210900167E0B40108123119A3
:103ACD00E4900167F03019051245E7C21912280D6F
:103ADD0012094B1211B51243AF12438A9001FFE048
:0C3AED0004F070D29001FEE004F080CAEA
:10438A009001FEE0FEA3E0FF7C037D201206E8ED2B
:10439A004C700C7F071245A5E49001FEF0A3F030A3
:0543AA000502C205221E
:1043AF00900069E0FD6003EDEDED3007159001FE23
:1043BF00E0FEA3E0FF7C007D641206E8ED4C700286
:0243CF00C20723
:0143D10022C9
:1011B500E4900344F0A3F0F9A3C9F0A3F0A3E9F088
:1011C50078497C037D017BFF7A3079E27E007F0FD1
:1011D500120636E4900358F02001030218FFC201FD
:1011E500124001900144EFF0124446900066EFF082
:1011F500600302148C900144E0FF900200E06F70E0
:10120500030218FF900200EFF07BFF7A2F7968FD4B
:101215007C001243D2900144E024FBB40C0040034F
:1012250002134E90123675F003A4C58325F0C583CD
:101235007302125A02129802126E021283021312DC
:1012450002133A0212FE0213260212AD0212EA023C
:1012550012C20212D6C2C97F2C7E0112433C9003F2
:1012650044E4F0A304F0021350C2C97F2C7E01129E
:10127500433C900344E4F0A37402F0021350C2C946
:101285007F2C7E0112433C900344E4F0A37403F0E9
:10129500021350C2C97F2C7E0112433C900344E4E3
:1012A500F0A37404F0021350C2C97F2C7E011243CF
:1012B5003C900344E4F0A37407F0021350C2C97FC5
:1012C5002C7E0112433C900344E4F0A37408F080A3
:1012D5007AC2C97F2C7E0112433C900344E4F0A3FB
:1012E5007409F08066C2C97F2C7E0112433C9003CD
:1012F50044E4F0A3740AF08052C2C97F2C7E011227
:10130500433C900344E4F0A37406F0803EC2C97FD9
:101315002C7E0112433C900344E4F0A37405F08055
:101325002AC2C97F2C7E0112433C900344E4F0A3FA
:10133500740CF08016C2C97F2C7E0112433C9003C9
:1013450044E4F0A3740BF08002D2C9900344E0702A
:1013550002A3E070030218FFD207D20F7B017A00C7
:10136500799A90037BE4F0A37478F07F007EF07D9A
:101375007D7C001239BB90037274FFF0A3742FF0CB
:10138500A37470F0900344E0FFA3E0900375CFF0E1
:10139500A3EFF07B017A03794912204F90035D7426
:1013A50001F0A37403F0A37449F07B017A00799AE4
:1013B50012379F900346EBF0A3EAF0A3E9F0900300
:1013C50046E0FBA3E0FAA3E04A4B70030218FF7B5B
:1013D500017A03794912002E900347EE8FF0120728
:1013E5003D900358E0FFC36480948E504B900346B4
:1013F500E0FBA3E0FAA3E0F912065C603B9003462C
:10140500A3E475F001120753A9F0FA12065CFEEF8A
:10141500FD3395E0FC74492DF58274033CF583EEAC
:10142500F0900358E004F0900346E0FBA3E0FAA334
:10143500E0F912065CB423A9900358E0C3648094D4
:101445008C503BE0FFFD3395E0FC74492DF582742B
:10145500033CF583740DF0EF3395E0FE744A2FF5E8
:101465008274033EF583740AF078417C027D017B2A
:10147500017A0379497E007F0F120636D2197B0166
:101485007A0279410241CF900066E064016003026F
:1014950018FF900144E024FBB40C0040030218FF40
:1014A5009014B375F003A4C58325F0C583730215A5
:1014B500CD02151D0215750214D70217DD02188C11
:1014C50002178502183502162502172D02167D0210
:1014D50016D59001EFE0240FF09001EEE03400F016
:1014E500C3A3E094FC9001EEE0940840077408F073
:1014F500A374FCF0900005E0240FF0900004E034A4
:1015050000F0C3A3E09498900004E09408404D7463
:1015150008F0A37498F080449001EFE024F1F09076
:1015250001EEE034FFF0D3A3E094BC9001EEE0942B
:101535000250077402F0A374BCF0900005E024F19A
:10154500F0900004E034FFF0D3A3E094BC900004D5
:10155500E0940250077402F0A374BCF09003727417
:10156500FFF0A3742FF0A37474F09000040218E147
:101575009001F1E0240FF09001F0E03400F0C3A3F6
:10158500E094FC9001F0E0940840077408F0A3741F
:10159500FCF0900007E0240FF0900006E03400F026
:1015A500C3A3E09498900006E0940840077408F0FF
:1015B500A37498F090037274FFF0A3742FF0A374D2
:1015C5007EF09000060218E19001F1E024F1F09020
:1015D50001F0E034FFF0D3A3E094BC9001F0E09477
:1015E5000250077402F0A374BCF0900007E024F1E8
:1015F500F0900006E034FFF0D3A3E094BC90000621
:10160500E0940250077402F0A374BCF09003727466
:10161500FFF0A3742FF0A3747EF09000060218E18A
:101625009001F3E0240FF09001F2E03400F0C3A341
:10163500E094FC9001F2E0940840077408F0A3746C
:10164500FCF0900009E0240FF0900008E03400F071
:10165500C3A3E09498900008E0940840077408F04C
:10166500A37498F090037274FFF0A3742FF0A37421
:1016750089F09000080218E19001F3E024F1F09060
:1016850001F2E034FFF0D3A3E094BC9001F2E094C2
:101695000250077402F0A374BCF0900009E024F135
:1016A500F0900008E034FFF0D3A3E094BC9000086C
:1016B500E0940250077402F0A374BCF090037274B6
:1016C500FFF0A3742FF0A37489F09000080218E1CD
:1016D5009001F5E0240FF09001F4E03400F0C3A38D
:1016E500E094FC9001F4E0940840077408F0A374BA
:1016F500FCF090000BE0240FF090000AE03400F0BD
:10170500C3A3E0949890000AE0940840077408F099
:10171500A37498F090037274FFF0A3742FF0A37470
:1017250094F090000A0218E19001F5E024F1F090A0
:1017350001F4E034FFF0D3A3E094BC9001F4E0940D
:101745000250077402F0A374BCF090000BE024F182
:10175500F090000AE034FFF0D3A3E094BC90000AB7
:10176500E0940250077402F0A374BCF09003727405
:10177500FFF0A3742FF0A37494F090000A0218E10F
:101785009001F7E0240FF09001F6E03400F0C3A3D8
:10179500E094FC9001F6E0940840077408F0A37407
:1017A500FCF090000DE0240FF090000CE03400F008
:1017B500C3A3E0949890000CE0940840077408F0E7
:1017C500A37498F090037274FFF0A3742FF0A374C0
:1017D5009FF090000C0218E19001F7E024F1F090E1
:1017E50001F6E034FFF0D3A3E094BC9001F6E09459
:1017F5000250077402F0A374BCF090000DE024F1D0
:10180500F090000CE034FFF0D3A3E094BC90000C02
:10181500E0940250077402F0A374BCF09003727454
:10182500FFF0A3742FF0A3749FF090000C0218E151
:101835009001F9E0240FF09001F8E03400F0C3A323
:10184500E094FC9001F8E0940840077408F0A37454
:10185500FCF090000FE0240FF090000EE03400F053
:10186500C3A3E0949890000EE0940840077408F034
:10187500A37498F090037274FFF0A3742FF0A3740F
:10188500AAF090000E80559001F9E024F1F0900146
:10189500F8E034FFF0D3A3E094BC9001F8E09402A3
:1018A50050077402F0A374BCF090000FE024F1F02F
:1018B50090000EE034FFF0D3A3E094BC90000EE05E
:1018C500940250077402F0A374BCF090037274FF85
:1018D500F0A3742FF0A374AAF090000EE0FFA3E02C
:1018E500900375CFF0A3EFF07B017A0379491220BD
:0A18F5004F7B017A0379491242107B
:0118FF0022C6
:103E4A007E007F2C7D007B017A00796A12091F7B34
:103E5A00017A00796A90037BE4F0A3742CF07F0066
:103E6A007E007D7D7C001239BB7F787E567D347C56
:103E7A001290008FE0F8A3E0F9A3E0FAA3E0FBC3F5
:103E8A001208457021FFFEFDFC90008BE0F8A3E0CC
:103E9A00F9A3E0FAA3E0FBC3120845400990006ABF
:103EAA00E0D39409400F7E007F2C7D007B017A00CD
:063EBA00796A12091F22C3
:10391300900372EEF0A3EFF07E007F2F7D007B011A
:103923007A02791212091F7B017A027912900372CB
:10393300E0FEA3E0FFE4FCFD780412087DEF241011
:10394300FFEE347DFEE43DFDE43CFC780812087D87
:1039530090037BE4F0A3742FF01239BB90023FE095
:10396300FEA3E0FFC390023EE09F90023DE09E5025
:103973001F900212E0FFFD900372E0B40012A3E077
:10398300B5050D746B2FF582E43400F583E0700FF9
:103993007E007F2F7D007B017A02791202091F903E
:1039A300023BA3E0900205F090023DE0FFA3E0900C
:0839B3000201CFF0A3EFF022A6
:09406900F582E43400F583E4F073
:10407200E490036FF090008F12089C1234567890EF
:10408200006A7408F0900093E090036FF07FD07E96
:10409200077D007C00123F997B017A00796A9003C8
:1040A20079E4F0A3742CF07F007E007D7D7C001209
:1040B20042BB123E4A900093E0FF90036FE06F9084
:0D40C20000696005E04404F022E054FBF0CA
:0140CF0022CE
:08385E0090036FEEF0A3EFF000
:10386600E4A3F090023FA3E0900371F0E4FCFD783E
:103876000412087DEF2410FFEF540FFFE4FEFDFC59
:10388600FBFAF9F8C3120845702690036FE0FEA311
:10389600E0FFE4FCFD780412087DEF2410FFEE340F
:1038A6007DFEE43DFDE43CFC7804120856123F9987
:1038B6007B017A02791290036FE0FEA3E0FFE4FC3D
:1038C600FD780412087DEF2410FFEE347DFEE43D02
:1038D600FDE43CFC780812087D900379E4F0A374BB
:1038E6002FF01242BB90036FE0FEA3E0FF123913E4
:1038F600900371E0FF90023FE07003A3E06F900039
:0C390600696005E04408F022E054F7F08E
:013912002292
:10280D00200003022894C20DC200C202900093E082
:10281D00C39420504C12412D90023FE0FEA3E0FFE7
:10282D00E4FCFD90008B120890900093E0246BF572
:10283D0082E43400F5837401F090020CA3E004905F
:10284D000212F004900093F0900069E054DFF01252
:10285D004072900212E0FF7E0012385E12412D8010
:10286D0007900069E04420F0900069E05421701752
:10287D00900096E0FCA3E0FDA3E0FEA3E04402FF80
:10288D00EC900096120890200F030229ED20020310
:10289D0002295490023FE0FEA3E0FFC3900202E044
:1028AD009F900201E09E507B900096A3A3A3E0545D
:1028BD0020FFE4FEFDFCEF60207BFF7A2F79B5123F
:1028CD0041CF900096E0FCA3E0FDA3E0FEA3E05411
:1028DD00EFFFEC9000961208907E017F007D007B4B
:1028ED00017A02794112091F7B017A027941900226
:1028FD0001E0FEA3E0FFE4FCFD780812087D9003E3
:10290D007B7401F0A3E4F01239BB7B017A027941AB
:10291D001241CF900202E004F07022900201E00417
:10292D00F0801AD3900202E09400900201E094002E
:10293D0040097BFF7A2F79BE1241CFC202900096DB
:10294D0012089C00000000200603022AC190009688
:10295D00A3A3A3E05404FFE4FEFDFCFBFAF9F8C3C6
:10296D00120845701790023DE0FEA3E0FF900201B2
:10297D00E06E7003A3E06F6003022AC1900205E0D0
:10298D00D39400404790023FE0FEA3E0FF90020287
:10299D00E09F900201E09E50307B017A027941E088
:1029AD00FEA3E0FFE4FCFD780812087D90037B7424
:1029BD0001F0A3E4F01239BBD219900202E004F049
:1029CD007006900201E004F022022A7AC206200469
:1029DD0003022AC17BFF7A2F79C51241CFC204228F
:1029ED00C3900168E0648094805003022AC1900274
:1029FD0005E0D394005003022A90900096A3A3A360
:102A0D00E05404FFE4FEFDFCFBFAF9F812084570F2
:102A1D001790023DE0FEA3E0FF900201E06E70030F
:102A2D00A3E06F6003022AC190023FE0FEA3E0FF26
:102A3D00C3900202E09F900201E09E50307B017A2C
:102A4D00027941E0FEA3E0FFE4FCFD780812087D69
:102A5D0090037B7401F0A3E4F01239BBD2199002FC
:102A6D0002E004F0704E900201E004F02290023D6D
:102A7D00E0FFA3E0900201CFF0A3EFF0900205E09C
:102A8D0014F022900203A3E02445F582E43401F50D
:102A9D0083E0FF7E00123913900169E024FFF0906E
:102AAD000168E034FFF0900204E004F0700690023B
:052ABD0003E004F0221B
:10094B0078447C037D017BFF7A3079F17E007F2830
:10095B00120636E490036CF0A3F0A3F0900096E03F
:10096B00FCA3E0FDA3E0FEA3E0FFEC4D4E4F7003B4
:10097B00020FDC900096A3A3A3E05401FFE4FEFD5D
:10098B00FCEF601C7F411245BD900096E0FCA3E09C
:10099B00FDA3E0FEA3E054FEFFEC9000961208903E
:1009AB00900096A3A3A3E05404FFE4FEFDFCEF60CC
:1009BB00207BFF7A2F79CC1241CF900096E0FCA3DD
:1009CB00E0FDA3E0FEA3E054FBFFEC9000961208C1
:1009DB0090900096A3A3A3E05402FFE4FEFDFCEF6E
:1009EB00604890037274FFF0A3742FF0A374D2F0DD
:1009FB00900093E024FFFFEE34FF900375F0A3EF1C
:100A0B00F07B017A03794412204F7B017A037944FE
:100A1B001241CF900096E0FCA3E0FDA3E0FEA3E023
:100A2B0054FDFFEC900096120890900096A3A3A3A0
:100A3B00E05408FFE4FEFDFCEF60207BFF7A2F798A
:100A4B00E01241CF900096E0FCA3E0FDA3E0FEA3F3
:100A5B00E054F7FFEC900096120890900096A3A339
:100A6B00A3E05410FFE4FEFDFCEF7003020B979024
:100A7B000093E0D394005003020B4C7BFF7A2F7949
:100A8B00FD1241CFE490036DF0A3F0900093E0FDD5
:100A9B0090036DE0FEA3E0FFC39DEE9400400302C4
:100AAB000B44746B2FF582E43400F583E064017022
:100ABB007712391390023DE0FEA3E0FFC390024092
:100ACB00E09FFF90023FE09EFED3EF9400EE940078
:100ADB00500C90036DA3E0246B124069804A900385
:100AEB007274FFF0A3742FF0A374FFF090036DE00A
:100AFB00FFA3E0900375CFF0A3EFF090023DE0FE73
:100B0B00A3E0FFC3900240E09FFF90023FE09E9066
:100B1B000377F0A3EFF07B017A03794412204F7B2C
:100B2B00017A0379441241CF90036EE004F0700612
:100B3B0090036DE004F0020A967BFF7A3079168001
:100B4B003190037274FFF0A37430F0A37419F0901A
:100B5B00008BE0FCA3E0FDA3E0FEA3E0FF90037598
:100B6B001208907B017A03794412204F7B017A03A0
:100B7B0079441241CF900096E0FCA3E0FDA3E0FE88
:100B8B00A3E054EFFFEC900096120890900096A310
:100B9B00A3A3E05440FFE4FEFDFCEF60289002129B
:100BAB00E0FF12385E7BFF7A30791D1241CF900047
:100BBB0096E0FCA3E0FDA3E0FEA3E054BFFFEC90A6
:100BCB000096120890900096A3A3A3E05480FFE434
:100BDB00FCEF6071E490036DF0A3F0900093E0FDE7
:100BEB0090036DE0FEA3E0FFC39DEE9400503374C1
:100BFB006B2FF582E43400F583E0B4011512391341
:100C0B00E490023BF0A3F090036DE0FEA3E0FF1233
:100C1B00385E90036EE004F070C190036DE004F059
:100C2B0080B91240727BFF7A30792D1241CF900040
:100C3B0096E0FCA3E0FDA3E0FEA3E0547FFFEC9065
:100C4B000096120890900096A3A3E0FEA3E4FFEE9B
:100C5B005401FEE4FDFCEE606B7BFF7A30793E12B3
:100C6B0041CF90037274FFF0A37430F0A37444F07F
:100C7B00900203E0FFA3E0900375CFF0A3EFF09099
:100C8B000124E0FFA3E0900377CFF0A3EFF07B010B
:100C9B007A03794412204F7B017A0379441241CFB6
:100CAB007BFF7A30794E1241CF900096E0FCA3E0A7
:100CBB00FDA3E0FEA3E0FFEE54FEFEEC90009612C7
:100CCB000890D204900096A3A3E0FEEE5402FEE43B
:100CDB00FDFCEE7003020D98900093E0FF9002066E
:100CEB00E0FEC39F4003020D7F746B2E124069120E
:100CFB00412D900093E014FF900206E06F70699015
:100D0B00020CE0FCA3E0FD04900093F0BCFF0FBDD0
:100D1B00FF0C90008B12089C000000008047900293
:100D2B000CE0FEA3E0FF12391390023FE0FEA3E0BC
:100D3B00FFE4FCFD90008B12089090008BE0FCA36D
:100D4B00E0FDA3E0FEA3E0FF78041208697804122B
:100D5B00087DEF2410FFE43EFEE43DFDE43CFC90F7
:100D6B00008B12089012407212412D7BFF7A307962
:100D7B00561241CF900096E0FCA3E0FDA3E0FEA34A
:100D8B00E0FFEE54FDFEEC9000961208909000965A
:100D9B00A3A3E0FEA3E4FFEE5404FEE4FDFCEE602F
:100DAB0059D20A7BFF7A3079611241CF124519E48F
:100DBB00900205F090008B12089C00000000E4905C
:100DCB000093F0FE7F20FD7B017A00796B12091FE7
:100DDB001240727BFF7A3079711241CFC20A9000B8
:100DEB0096E0FCA3E0FDA3E0FEA3E0FFEE54FBFEC8
:100DFB00EC90009612089012412D900096A3A3E060
:100E0B00FEA3E4FFEE5408FEE4FDFCEE60227BFF44
:100E1B007A30797E1241CF900096E0FCA3E0FDA3DF
:100E2B00E0FEA3E0FFEE54F7FEEC90009612089064
:100E3B00900096A3A3E0FEE4FFEE5410FEE4FDFC4D
:100E4B00EE7003020FDC900207E0C3941440030220
:100E5B000FB5200303020F257B017A00793512367B
:100E6B00C490036CEFF0900207E06F6003020F2059
:100E7B007B017A0079391236C490036DEEF0A3EF43
:100E8B00F090037274FFF0A37430F0A3748BF090A6
:100E9B00036CE0FD900375E4F0A3EDF0A3EEF0A37B
:100EAB00EFF07B017A00793412204F7B017A0079C5
:100EBB00341241CF900207E004F09003447423F006
:100ECB00900207E0FD75F0648475F00A84E5F02468
:100EDB0030900345F0ED75F00A8475F00A84E5F067
:100EEB002430A3F0900207E075F00A84E5F024307B
:100EFB00900347F0A37450F0A37452F0A37441F025
:100F0B00A37444F0A3740DF0A3740AF07B017A036D
:100F1B007944124210C203020FAC900001E004F0BE
:100F2B007006900000E004F0C3900001E0940A907A
:100F3B000000E0648094805003020FDC900207E015
:100F4B0004F09003447423F0900207E0FD75F06405
:100F5B008475F00A84E5F02430900345F0ED75F0CC
:100F6B000A8475F00A84E5F02430A3F0900207E0C0
:100F7B0075F00A84E5F02430900347F0A37450F029
:100F8B00A37452F0A37441F0A37444F0A3740DF056
:100F9B00A3740AF07B017A037944124210C203C294
:100FAB000EE4900000F0A3F08027900096E0FCA3E5
:100FBB00E0FDA3E0FEA3E0FFEE54EFFEEC90009605
:100FCB00120890E4900207F07BFF7A3079161241F9
:100FDB00CF900096A3A3E0FEEE5420FEE4FDFCEEC2
:100FEB006077900208E0FFC394145054900001E026
:100FFB0004F07006900000E004F0C3900001E09450
:10100B0014900000E064809480404E90037274FF53
:10101B00F0A37430F0A37492F0A3E4F0A3EFF07B91
:10102B00017A00793412204F7B017A007934124215
:10103B0010900208E004F0E4900000F0A3F0801997
:10104B00900096E0FCA3E0FDA3E0FEA3E0FFEE54CE
:10105B00DFFEEC900096120890900096A3A3E0FEA2
:10106B00EE5440FEE4FDFCEE700302112E900208DC
:10107B00E0FFC394145064900001E004F0700690FC
:10108B000000E004F0C3900001E09405900000E044
:10109B0064809480500302112E90037274FFF0A3AE
:1010AB007430F0A3749CF0A3E4F0A3EFF09002096A
:1010BB00E0FF900377E4F0A3EFF07B017A00793443
:1010CB0012204F7B017A007934124210900208E013
:1010DB0004F0E4900000F0A3F0804890037274FFDA
:1010EB00F0A37430F0A374A8F0900209E0FF900312
:1010FB0075E4F0A3EFF07B017A03794412204F7B68
:10110B00017A0379441241CF900096E0FCA3E0FDF5
:10111B00A3E0FEA3E0FFEE54BFFEEC900096120896
:10112B0090C203900096A3A3E0FEE4FFEE5480FE72
:10113B00E4FDFCEE6030123E4A9000957401F09095
:10114B000067F01240727BFF7A3079BB1241CF906F
:10115B000096A3A3E0FEA3E0FFEE547FFEE4FDFCAC
:10116B00900096120890900096A3E0FDE4FFFEED30
:10117B005401FDE4FCED6031123E4AE4900095F021
:10118B00900067F01240727BFF7A3079CE1241CF1C
:10119B00900096E0FCA3E0FDA3E0FEA3E0FFED547E
:0911AB00FEFDEC90009612089084
:0111B4002218
:102AC200900068E0D394005003022D1DE014F0E062
:102AD20094055002D20B90020AE004F0900166E0E5
:102AE20004F0E0B40702E4F090020AE0B40702E462
:102AF200F0900166E075F012A4246AF582E43401D4
:102B0200F583E0FEA3E0FF7C007D141206E890024C
:102B120010EEF0A3EFF09003467401F090020AE089
:102B220075F012A4246AF582E43401F583C083C0EF
:102B320082900346E0FFD082D08375F0021208CD66
:102B4200E0FCA3E0FD900166E075F012A4246AF5B2
:102B520082E43401F58375F002EF1208CDE0FEA3A2
:102B6200E0D39DEE9C5003022BF990020AE075F02F
:102B720012A4246AF582E43401F583C083C08290F2
:102B82000346E0D082D08375F0021208CDE0FCA3A8
:102B9200E0FD900166E075F012A4246AF582E43447
:102BA20001F58375F002EF1208CDE0FEA3E0C39DAC
:102BB200FDEE9CFCE41202FA9001E81208909002E9
:102BC20010E0FCA3E0FDE41202FAA804A905AA069B
:102BD200AB079001E8E0FCA3E0FDA3E0FEA3E0FF69
:102BE200120247900346E025E025E02410F582E436
:102BF2003400F58312089090020AE075F012A424C2
:102C02006AF582E43401F583C083C082900346E012
:102C1200FFD082D08375F0021208CDE0FCA3E0FD64
:102C2200900166E075F012A4246AF582E43401F59D
:102C32008375F002EF1208CDE0FEA3E0D39DEE9C77
:102C42004003022D05900166E075F012A4246AF596
:102C520082E43401F583C083C082900346E0D082CF
:102C6200D08375F0021208CDE0FCA3E0FD90020AC9
:102C7200E075F012A4246AF582E43401F58375F05C
:102C820002EF1208CDE0FEA3E0C39DFDEE9CFCE442
:102C92001202FA9001E8120890900210E0FCA3E000
:102CA200FDE41202FAA804A905AA06AB079001E8FE
:102CB200E0FCA3E0FDA3E0FEA3E0FF1202479003C5
:102CC20046E0FB25E025E02410F582E43400F5839C
:102CD200120890EB25E025E02410F582E43400F59B
:102CE20083E0FCA3E0FDA3E0FEA3E0FF1202E49078
:102CF2000346E025E025E02410F582E43400F58364
:102D0200120890900346E004F0E064096003022B8D
:0D2D12001EE490020EF0A3F0C20822C20CD5
:012D1F002291
:10311900E4900344F0A3F0300809200C030232BA0A
:10312900022AC290020FE004F0700690020EE00439
:10313900F0900210E0FEA3E0FF90020EE0B5062237
:10314900A3E0B5071D9000037401F0900096E0FC20
:10315900A3E0FDA3E0FEA3E04404FFEC9000961277
:1031690008909003447401F0900166E075F012A490
:10317900246AF582E43401F583C083C08290034454
:10318900E0FFD082D08375F0021208CDE0FCA3E005
:10319900FDEF25E024ECF582E43401F583E0FEA39C
:1031A900E0C39DFFEE9CFE1245B1C3EF9405EE64AA
:1031B9008094805043900345E004F0900166E075E7
:1031C900F012A4246AF582E43401F583C083C08235
:1031D900900344E0FFD082D08375F0021208CDE05D
:1031E900FCA3E0FDEF25E024ECF582E43401F5834E
:1031F900ECF0A3EDF002328290020EE0FCA3E0FDB8
:10320900E41202FA900344E025E025E02410F58257
:10321900E43400F583E0F8A3E0F9A3E0FAA3E0FBC6
:1032290012013EC004C005C006C00790020AE0753D
:10323900F012A4246AF582E43401F583C083C082C4
:10324900900344E0D082D08375F0021208CDE0FCEF
:10325900A3E0FDE41202FAD003D002D001D000129B
:10326900004D120333900344E025E024ECF582E499
:103279003401F583EEF0A3EFF0900344E004F0E0AD
:10328900C394095003023171900345E0B4080690D4
:1032990000027401F0E4900345F0900003E0B401EA
:1032A90010900002E0B40109E4A3F0900002F0D20A
:0132B900080C
:0132BA0022F1
:103CAF002332353550524144002350574D52002393
:103CBF0032353550554C4B0023323535504D4F442E
:103CCF00002353746F700023446F776E0023535497
:103CDF004F500023566572692B0023466C6973742D
:103CEF00002346526561642D002350533200234553
:103CFF006E61626C65230047430023446973616200
:103D0F006C65002300234644656C2D0023466F72BB
:103D1F006D61740023464D51454E41424C45002381
:0B3D2F00464D5144495341424C4500B1
:1034EA00200D60900068E0C394075046E004F09015
:1034FA00020BE004F0E0B40702E4F0E4FFEF25E099
:10350A002412F582E43401F583E0FCA3E0FD900285
:10351A000BE075F012A4246AF582E43401F5837590
:10352A00F002EF1208CDECF0A3EDF00FEFB409CDE5
:10353A008002C20B900068E0D3940050030235D990
:10354A00D20C2290023FE0FEA3E0FFE4FCFDFB7AEE
:10355A007DF9F8D3120845406F90023FE0FEA3E0E0
:10356A00FF540F7014EEC4F854F0C868FEEFC45448
:10357A000F48FFE4FCFD123F997B017A02794190E2
:10358A00023FE0FEA3E0FFE4FCFD780812087D900C
:10359A0003797401F0A3E4F01242BB900240E00404
:1035AA00F0700690023FE004F0900096E0FCA3E081
:1035BA00FDA3E0FEA3E04401FFEC90009612089000
:0F35CA00900069E054FEF022900069E04401F0A7
:0135D90022CF
:104315009003DAE0FF25E02412F582E43401F58309
:10432500E0FCA3E0FDEF25E024ECF582E43401F5A3
:0743350083ECF0A3EDF02280
:0B190000900354EBF0A3EAF0A3E9F021
:10190B00A3E4F0A3F0A3F0900354E0FBA3E0FAA34D
:10191B00E0F97D2312440F900357EBF0A3EAF0A3F9
:10192B00E9F0900357E0FBA3E0FAA3E04A4B700306
:10193B00021B6C900358E475F00112073D9003579E
:10194B00E0FBA3E0FAA3E0F912065CFFC36480940A
:10195B00B04012D3EF648094B9500A900001120684
:10196B00756450602D12065CFFC3648094B04025F3
:10197B00D3EF648094B9501D900001120675FFB42B
:10198B003013D3648094B9500C900002120675B4D6
:10199B005003021FE690035D74FFF0A3743CF0A3A9
:1019AB0074AFF0900354E0FBA3E0FAA3E0F9123715
:1019BB009FEA494B6039900096E0FCA3E0FDA3E061
:1019CB00FEA3E0FFEE4410FEEC9000961208907E12
:1019DB00007F787D007B017A00799A12091FE490D1
:1019EB000207F07BFF7A3C79B81241CF021FE190DE
:1019FB00035D74FFF0A3743CF0A374BEF09003542A
:101A0B00E0FBA3E0FAA3E0F912379FEA494B602110
:101A1B00900096E0FCA3E0FDA3E0FEA3E0FFEE4404
:101A2B0020FEEC900096120890E4900208F0021B46
:101A3B006C90035D74FFF0A3743CF0A374C7F0903B
:101A4B000354E0FBA3E0FAA3E0F912379F9003578E
:101A5B00EBF0A3EAF0A3E9F04A4B6041900096E06B
:101A6B00FCA3E0FDA3E0FEA3E0FFEE4440FEEC9000
:101A7B000096120890E4900208F07BFF7A3C79C73D
:101A8B0012002E900357E0FBA3E0FAA3E02FF9EA34
:101A9B003EFA1236C4900209EFF0021FE190035D8B
:101AAB0074FFF0A3743CF0A374D0F0900354E0FBEC
:101ABB00A3E0FAA3E0F912379FEA494B600E300D11
:101ACB0004D2008004D208C20C021FE190035D74A3
:101ADB00FFF0A3743CF0A374D6F0900354E0FBA387
:101AEB00E0FAA3E0F912379FEA494B6046123E4AEF
:101AFB007E007F2F7D007B017A02791212091F90E5
:101B0B00008BA3A3E0FEA3E0FF90023DEEF0A3EF5A
:101B1B00F0A3EEF0A3EFF0D20D900096E0FCA3E063
:101B2B00FDA3E0FEA3E04401FFEC900096120890A9
:101B3B00021FE190035D74FFF0A3743CF0A374DC0F
:101B4B00F0900354E0FBA3E0FAA3E0F912379FEA0D
:101B5B00494B6011E4900124F0A3F0C20DD208C2EE
:101B6B000CFE7F012290035D74FFF0A3743CF0A385
:101B7B0074E2F0900354E0FBA3E0FAA3E0F9123710
:101B8B009FEA494B6020C200C20DC202900096E052
:101B9B00FCA3E0FDA3E0FEA3E04408FFEC9000965D
:101BAB00120890021FE190035D74FFF0A3743CF0E8
:101BBB00A374E9F0900354E0FBA3E0FAA3E0F9125D
:101BCB00379FEA494B6023C20DD208C20C123E4A22
:101BDB00900096E0FCA3E0FDA3E0FEA3E04410FF21
:101BEB00EC900096120890021FE190035D74FFF0D9
:101BFB00A3743CF0A374F0F0900354E0FBA3E0FA61
:101C0B00A3E0F912379F900357EBF0A3EAF0A3E997
:101C1B00F04A4B604AC20DD202D208C20C123E4AA5
:101C2B007BFF7A3C79F012002E900357E0FBA3E088
:101C3B00FAA3E02FF9EA3EFA1236C4900207EFF04E
:101C4B007E00123913900096E0FCA3E0FDA3E0FEAA
:101C5B00A3E04420FFEC900096120890021FE19045
:101C6B00035D74FFF0A3743CF0A374F8F09003547D
:101C7B00E0FBA3E0FAA3E0F912379FEA494B603F80
:101C8B007FDF7E077D007C00123F997B017A027912
:101C9B00419003797401F0A3E4F0FF7EF07D7DFCAD
:101CAB001242BB900096E0FCA3E0FDA3E0FEA3E094
:101CBB00FFEE4408FEEC900096120890021FE19094
:101CCB00035D74FFF0A3743CF0A374FDF090035418
:101CDB00E0FBA3E0FAA3E0F912379F900357EBF078
:101CEB00A3EAF0A3E9F04A4B7003021D88C20D7BF7
:101CFB00FF7A3C79FD12002E900357E0FBA3E0FA2C
:101D0B00A3E02FF9EA3EFA1236C4900203EEF0A3D9
:101D1B00EFF012391390035D74FFF0A3743DF0A341
:101D2B007406F0900354E0FBA3E0FAA3E0F912373A
:101D3B009F900357EBF0A3EAF0A3E9F07BFF7A3D0A
:101D4B00790612002E900357E0FBA3E0FAA3E02FD5
:101D5B00F9EA3EFA1236C490023BEEF0A3EFF09094
:101D6B000096E0FCA3E0FDA3E0FEA3E04440FFEC03
:101D7B00900096120890D208C20C021FE190035DEE
:101D8B0074FFF0A3743DF0A37409F0900354E0FBCF
:101D9B00A3E0FAA3E0F912379FEA494B6029C20D81
:101DAB00123E4A9000947401F0900096E0FCA3E080
:101DBB00FDA3E0FEA3E04480FFEC90009612089098
:101DCB00D208C20C021FE190035D74FFF0A3743DB7
:101DDB00F0A37406F0900354E0FBA3E0FAA3E0F940
:101DEB0012379F900357EBF0A3EAF0A3E9F04A4BAD
:101DFB007003021EBBC20D123E4A90035D74FFF0CE
:101E0B00A3743DF0A37412F0900354E0FBA3E0FA2B
:101E1B00A3E0F912379F900357EBF0A3EAF0A3E985
:101E2B00F07BFF7A3D791212002E900357E0FBA353
:101E3B00E0FAA3E02FF9EA3EFA1236C4900203EE61
:101E4B00F0A3EFF012391390035D74FFF0A3743D10
:101E5B00F0A37406F0900354E0FBA3E0FAA3E0F9BF
:101E6B0012379F900357EBF0A3EAF0A3E9F07BFF47
:101E7B007A3D790612002E900357E0FBA3E0FAA3FC
:101E8B00E02FF9EA3EFA1236C4900205EFF090000B
:101E9B0096E0FCA3E0FDA3E0FEA3E0FFEE4401FE11
:101EAB00EC900096120890D206D208C20C021FE1E9
:101EBB0090035D74FFF0A3743DF0A37414F09003D2
:101ECB0054E0FBA3E0FAA3E0F912379F900357EB22
:101EDB00F0A3EAF0A3E9F04A4B6045C20D123E4A6B
:101EEB007BFF7A3D791412002E900357E0FBA3E0A1
:101EFB00FAA3E02FF9EA3EFA1236C4900206EFF08D
:101F0B00900096E0FCA3E0FDA3E0FEA3E0FFEE440F
:101F1B0002FEEC900096120890D208C20C021FE150
:101F2B0090035D74FFF0A3743DF0A3741BF090035A
:101F3B0054E0FBA3E0FAA3E0F912379FEA494B60A8
:101F4B001F900096E0FCA3E0FDA3E0FEA3E0FFEEF4
:101F5B004404FEEC900096120890D208C20C8076D6
:101F6B0090035D74FFF0A3743DF0A37423F0900312
:101F7B0054E0FBA3E0FAA3E0F912379FEA494B6068
:101F8B001B900096E0FCA3E0FDA3E0FEA3E0FFEEB8
:101F9B004480FEEC900096120890803A90035D749A
:101FAB00FFF0A3743DF0A3742EF0900354E0FBA359
:101FBB00E0FAA3E0F912379FEA494B601E900096B6
:101FCB00E0FCA3E0FDA3E0FEA3E0FFED4401FDEC8C
:0E1FDB009000961208907E007F0122E4FEFF27
:011FE90022D5
:0B2D2000900344EBF0A3EAF0A3E9F0FD
:102D2B00E4A3F0A3F0A3F0A3F0A3F0A3F0A3F0A30C
:102D3B00F0A3F0A3F0A3F0A3F0A3F0121900EF4E51
:102D4B006003022F58900344E0FBA3E0FAA3E0F9E1
:102D5B00124210900344E0FBA3E0FAA3E0F99003C6
:102D6B0052E0FEA3E0FFF5828E83120675FD640A26
:102D7B007003022F58C3EF94FFEE94004003022F11
:102D8B005890034FE06401702BED64506021900369
:102D9B0052A3E0F5828E83120675FF1240D090038A
:102DAB004CEFF0900347E075F00AA42FF08005E498
:102DBB0090034FF0900350E064016003022E859066
:102DCB000344E0FBA3E0FAA3E0F9900352E0FEA377
:102DDB00E0F5828E83120675FF642360047E01800A
:102DEB00027E00EF645460047F0180027F00EF5E7F
:102DFB006040900344E0FBA3E0FAA3E0F990035298
:102E0B00E0FEA3E0F5828E83120675FF1240D09090
:102E1B00034DEFF0FB900348E0FEA3E0FF7C007D49
:102E2B000A1206D6EB2FFFEC3E900348F0A3EFF00F
:102E3B008048E4900350F0D3900349E094C490038E
:102E4B0048E0940940077409F0A374C4F090034858
:102E5B00E0FEA3E0FF900347E0FD25E02412F5829E
:102E6B00E43401F583EEF0A3EFF09003DAEDF0E438
:102E7B00900348F0A3F0900347F0900351E06401F6
:102E8B006003022F10900344E0FBA3E0FAA3E0F9E8
:102E9B00900352E0FEA3E0F5828E83120675FF12BB
:102EAB0040D090034EEFF0FB90034AE0FEA3E0FF0F
:102EBB007C007D0A1206D6EB2FFFEC3EFE90034AF8
:102ECB00F0A3EFF0900112EEF0A3EFF0900344E0CB
:102EDB00FBA3E0FAA3E0F9900353E02401FF900376
:102EEB0052E034008F82F583120675B40D17D39020
:102EFB00034BE0946490034AE09400500512431591
:102F0B0080031234EA900344E0FBA3E0FAA3E0F958
:102F1B00900352E0FEA3E0F5828E83120675FFB498
:102F2B00230690034F7401F0EFB4500690035074D6
:102F3B0001F0EFB454069003517401F0900353E089
:0D2F4B0004F07006900352E004F0022D5EC9
:012F58002256
:104477000A0000000000000000000000000000002B
:064487000000000000002F
:1027A800C119C11AC11B4203D800004203D6000058
:0427B8004103D50004
:1044A30075985075D7D075D6FF438E15E4F587D22E
:0444B300AFD2AC22B6
:10450700759A5075D7D075D6FF75AF01D2AF43BA3C
:0245170001227F
:0B45BD002098FD8F99D21A201AFD22D1
:0B41CF00900371EBF0A3EAF0A3E9F00D
:1041DA00E4FDFC900371E0FBA3E0FAA3E0F9120608
:1041EA005C6022C3EC9401501C900371A3E475F047
:1041FA0001120753A9F0FA12065CFF1245BD0DBD64
:05420A0000010C80CE54
:01420F00228C
:0842510090035BEEF0A3EFF017
:10425900785D7C037D017BFF7A4479797E007F1448
:1042690012063690035BE0FEA3E0FFE4FCFD7B0150
:104279007A03795D1233F87B017A03795D0241CFC4
:1043D200900359ECF0A3EDF01241CF900359E0FEA7
:0F43E200A3E0FF1242517BFF7A4479770241CF6B
:08000300D21B8F9B201BFD2284
:0B42100090036FEBF0A3EAF0A3E9F0CD
:10421B00E4FDFC90036FE0FBA3E0FAA3E0F91206C8
:10422B005C6022C3EC9401501C90036FA3E475F007
:10423B0001120753A9F0FA12065CFF1200030DBD21
:05424B0000010C80CE13
:01425000224B
:03002300023D3A61
:0B3D3A00C0E0C083C082C0D075D0087C
:103D4500E4FF309869AF99C2982019599003D8A318
:103D5500E02441F582E43402F583EFF09003D9E0E5
:103D650004F070069003D8E004F09003D8E0FCA3BB
:103D7500E0FD2440F58274023CF583E0640A6009A5
:103D8500D3ED94FFEC940040259003D8A3E02441A3
:103D9500F582E43402F583E4F0D219D20F9003D80A
:103DA500F0A3F08009300D06EFB45302D20030992C
:053DB50004C299C21ACE
:093DBA00D0D0D082D083D0E032D9
:03004300023EC0BA
:0B3EC000C0E0C083C082C0D075D008F5
:103ECB00E4FFE59A30E048539AFEAF9B200340EFA6
:103EDB00B423199003D5E4F0E0FD3395E0FC743482
:103EEB002DF58274003CF583EFF08008EFB40D04E0
:103EFB00D2037F009003D5E0FD3395E0FC74342DA5
:103F0B00F58274003CF583EFF09003D5E004F0E507
:093F1B009A30E105539AFDC21B26
:093F2400D0D0D082D083D0E0326D
:0945E7007B017A027941022D20CA
:1044B70000000000000000000000000000000000F5
:0444C70000000000F1
:1040D000EF24D0B40A0050529040E675F003A4C516
:1040E0008325F0C5837302410402410802410C029A
:1040F000411002411402411802411C0241200241B8
:1041000024024128E4F980227901801E7902801A74
:1041100079038016790480127905800E7906800A69
:0C41200079078006790880027909AF0158
:01412C002270
:1033F800900371120890900375EBF0A3EAF0A3E92B
:01340800F0D3
:1034090078787C037D017BFF7A4479B77E007F144D
:10341900120636E490038CF0A3F090038CF090032D
:1034290071E0FCA3E0FDA3E0FEA3E0FFEC4D4E4FED
:103439006048E47B0AFAF9F8900371A3A3A3E012A8
:1034490007A5EB2430FF90038CE02478F582E4345F
:1034590003F583EFF090038CE004F0900371E0FC36
:10346900A3E0FDA3E0FEA3E0FFE47B0AFAF9F8126A
:1034790007A590037112089080A490038CE0A3F033
:10348900E490038CF090038DE0FF90038CE0FEC381
:103499009F5036EEFDC3EF9DFFE49400FE74772F35
:1034A900F58274033EF583E0FF900375E0FBA3E02A
:1034B900FAA3E0F990038CE0F582758300EF120618
:1034C900B490038CE004F080BC900375E0FBA3E0AA
:1034D900FAA3E0F990038CE0F582758300E4020613
:0134E900B42E
:1027BC004203D100004103CE004203CF000042038C
:0727CC00D300004103CD0121
:0D000E00D2AF438EC0438911D2A9D2AB22DC
:10428900C3EF940EEE940050047E007F0E7C007DF7
:10429900161206D6AD07AC06749C2DFD74FF3CFCC6
:1042A900C374FF9DFD74FF9CF58CAF05EFF58AD2B1
:0142B9008C78
:0142BA0022E1
:10452B00438E4053890F758B9A758DA9C28FD28E8E
:01453B00225D
:03000B000232BB03
:1032BB00C0E0C0F0C083C082C0D075D000C000C0D9
:0732CB0004C005C006C007A6
:1032D2009003CDE014B4100040030233DD9032EDD0
:1032E20075F003A4C58325F0C5837302331D023331
:1032F2002502333902334002335302335A02336D0B
:1033020002337402338702338E0233A10233AD02D9
:1033120033C20233C80233C20233D1D2C89001EEA3
:103322000233A6C2C89001EEE0FEA3E0FFC3741E02
:103332009FFF740A0233BED2B49001F08066C2B419
:103342009001F0E0FEA3E0FFC374C49FFF74098004
:103352006BD2849001F2804CC2849001F2E0FEA311
:10336200E0FFC374C49FFF74098051D2CB9001F473
:103372008032C2CB9001F4E0FEA3E0FFC374C49F8D
:10338200FF74098037D2859001F68018C2859001BA
:10339200F6E0FEA3E0FFC374C49FFF7409801DD250
:1033A200CA9001F8E0FEA3E0FF801FC2CA9001F8B4
:1033B200E0FEA3E0FFC374C49FFF74099EFE800A6F
:1033C2007FF47E0180047FD07E07124289800C7FC9
:1033D200D07E071242899003CDE4F09003CDE00441
:0133E200F0FA
:1033E300D007D006D005D004D000D0D0D082D0836F
:0533F300D0F0D0E03233
:03001B00023B8F16
:103B8F00C0E0C083C082C0D09003CEE004F09003A9
:103B9F00D0E004F070069003CFE004F09003D2E081
:103BAF0004F070069003D1E004F09003D1E07004AC
:103BBF00A3E06414700C90016704F09003D1E4F05B
:103BCF00A3F0300A249003D4E004F070069003D3DE
:103BDF00E004F09003D3E07004A3E0643C700CB2F7
:103BEF00C49003D3F0A3F08002D2C49003CEE0B40C
:103BFF003204D201E4F09003CFE0B4010EA3E0B49D
:103C0F00F409B2A09003CFE4F0A3F0D0D0D082D0CB
:043C1F0083D0E0323C
:10448D00E49003DBF0D3EF9400EE94004007EF1FB0
:05449D0070F31E80F029
:0144A20022F7
:0945F00053B3FE53B4FE02456C06
:0F453C00E4C2C07F0512458B7FFF12458BD2C0B2
:01454B00224D
:104460009003DCEFF0C2C07F0112458B9003DCE0CB
:07447000FF12458BD2C022B0
:0A45D300C2C07F0612458BD2C02241
:0A45DD00C2C07F0412458BD2C02239
:10418800E4900344F0A3F0C2C07F9012458BE4FF93
:1041980012458BE4FF12458BE4FF12458B7FFF121B
:1041A800458BEFFE900344E04EF0A3E0F07FFF1252
:1041B800458B900344E0FEA3E04FFF900344EEF0EC
:0641C800FEA3EFF0D2C0DF
:0141CE0022CE
:0F39BB00900374EBF0A3EAF0A3E9F0A3120890D5
:1039CA00C2C07F0312458B900377E0FCA3E0FDA3FE
:1039DA00E0FEA3E0FF781012085612458B90037799
:1039EA00E0FCA3E0FDA3E0FEA3E0FF78081208567E
:1039FA0012458B900377E0FCA3E0FDA3E0FEA3E071
:103A0A00FFE412458BE490037DF0A3F090037BE082
:103A1A00FEA3E0FFC390037EE09F90037DE09E50EB
:103A2A002F7FFF12458B900374E0FBA3E0FAA3E01B
:103A3A00F990037DE0FCA3E0F5828C83EF1206B4D3
:103A4A0090037EE004F070C490037DE004F080BC33
:023A5A00D2C0D8
:013A5C002247
:0F3AF90090038AEBF0A3EAF0A3E9F0A312089080
:103B08001245D3C2C07F0212458B90038DE0FCA3FF
:103B1800E0FDA3E0FEA3E0FF781012085612458BE3
:103B280090038DE0FCA3E0FDA3E0FEA3E0FF78088E
:103B380012085612458B90038DA3A3A3E0FF1245EC
:103B48008BE4900393F0A3F0900391E0FEA3E0FFD1
:103B5800A3E0FCA3E0FDC39FEC9E502690038AE0FF
:103B6800FBA3E0FAA3E0F98D828C83120675FF129D
:103B7800458B900394E004F070CE900393E004F03A
:073B880080C6D2C00245F91E
:0F35DA0090037FEBF0A3EAF0A3E9F0A3120890AF
:1035E900900382A3A3A3E0FFE4C39FFF74019400A7
:1035F900FE900388F0A3EFF0900386E0FCA3E0FDC2
:10360900D39FEC9E5006A3ECF0A3EDF0900382E06B
:10361900FCA3E0FDA3E0FEA3E0FF900388E0FBA389
:10362900E0900391CBF0A3EBF090037FE0FBA3E0E4
:10363900FAA3E0F9123AF9900388E0FEA3E0FF90BB
:103649000386E0B50606A3E0B5070122900388E0EA
:10365900FEA3E0FF900380EE8FF012073D900382F6
:10366900E0F8A3E0F9A3E0FAA3E0FBE4FCFDEB2F0B
:10367900FFEA3EFEED39FDEC38FC9003821208901A
:10368900900388E0FEA3E0FFC3900387E09FFF90CB
:103699000386E09EFEF0A3EFF0D39400EE94014080
:1036A9000AA37401F0A3E4F0023615900386E0FF43
:0B36B900A3E0A3CFF0A3EFF002361552
:0642BB009003751208904B
:1042C10090037B12089C00000000C003900375E07E
:1042D100FCA3E0FDA3E0FEA3E0FFA3E0FBA3E090CD
:0C42E1000386CBF0A3EBF0D0030235DA2B
:104519001245D31245F9C2C07FC712458BD2C002DA
:0245290045F952
:103F9900900372120890900372E0FCA3E0FDA3E085
:103FA900FEA3E0FF780C12087D90037212089012AC
:103FB90045D31245F9C2C07F2012458B900372E0A8
:103FC900FCA3E0FDA3E0FEA3E0FF7810120856125F
:103FD900458B900372E0FCA3E0FDA3E0FEA3E0FFA4
:103FE900780812085612458B900372A3A3A3E0FF29
:083FF90012458BD2C00245F90C
:0845F90012453CEF20E0F9221D
:10454C00C2C07FB912458BD2C07F037E0002448D5E
:10455C00C2C07FAB12458BD2C07F037E0002448D5C
:10456C005391FB439204E4F5CF75CDC075CED022A8
:0D458B008FCFE5CD30E7FB75CDC0AFCF225F
:0746010053CEFC43CE03225F
:04001E0053CEFC229F
:10433C00EF25E0FFEE33FCAD07D3ED9400EC9400D9
:10434C0040147A067BA4EB1B70011AEB4A70F7ED54
:06435C001D70E61C80E369
:014362002238
:1042ED00EF25E0FFEE33FEE4FDFCD3ED9FEC9E5099
:1042FD0008000DBD00010C80F10000000000000061
:07430D0000000000000000A9
:014314002286
:1027D3004203A001424903C40000000000000000BE
:1027E30000602003A20001000200030004000500B2
:1027F30006000700080009000A000B000C000D008A
:092803000E000F001041039F01BB
:073F2D00C2A79003A0E0FF12
:053F340090035CEFF0BA
:103F3900A3E4F0A304F0E49003C5F090035DF0A3BB
:103F490004F0C390035DE09401504490035CE0FFEA
:103F5900A3A3E05F6004D2C58002C2C5D2A67F32A6
:103F69007E001242EDC2A67F327E001242EDD2A639
:103F790030C20D90035DE0A3E0FF9003C5E04FF070
:0F3F890090035EE025E0F090035DE033F080B33D
:013F98002206
:10444600123F2D9003A1E0FF123F34D2A79003C57F
:0A445600E0B473037F00227F01220F
:103DC300E4900359F0A3F0A304F0123F2D9003A154
:103DD300E0FF123F349003597402F090035AE4F069
:103DE300A304F0C390035AE094015045D2A6C2A69F
:103DF3007F327E001242EDD2A630C22690035AE0F3
:103E0300A3E0FF900359E024C4F582E43403F5836F
:103E1300E04FFF900359E024C4F582E43403F583B3
:103E2300EFF090035BE025E0F090035AE033F0807D
:103E3300B27F327E001242ED900359E004F0E0C3FA
:063E430094094097D2A78C
:013E49002256
:104001001245C8123DC39003C8E0FE9003C7E0FD0E
:10401100EDFF9003C2EEF0A3EFF0E4FDED25E02407
:10402100A2F582E43403F583A3E014FC74017E005D
:10403100A804088005C333CE33CED8F9FF9003C25C
:10404100E0FAA3E0FBEA5EFEEB5F4E701304A80406
:10405100088002C333D8FC5B90039FF0ED04FF227C
:074061000DEDB410B77F0064
:014068002235
:0D45980074C42FF582E43403F583E0FF22A4
:0A45C8007F099003C4E4F0A3DFFCB8
:0145D20022C6
:03002600C2802273
:03461600B280224D
:03461900D280222A
:03461C00C2C422F3
:03461F00C2C422F0
:03462200B2C422FD
:03462500C2A0220E
:03462800D2A022FB
:07460800C280C2C4C2A0225F
:07460F00D280D2C4D2A02228
:03462B00C2C922DF
:1044CB0012462B7FC87E0012433C12462E7FC87EBD
:0444DB000002433C5C
:03462E00D2C922CC
:1044DF007401A807088002C333D8FC429DE4F5BDE0
:0444EF0043A8A0221C
:0C45A500EF44A8F5BC7F027E000242ED4E
:03002B0002442B61
:10442B00C0E0C083C08275BC00900165E5BDF05350
:0B443B00BC7FD205D082D083D0E032DD
:1000460002039FE86480F8E933E83360110460F046
:10005600ED33EC337009E8FCE9FDEAFEEBFF220420
:1000660060DED3EB9FEA9EE99DE8C2E78CF0C2F71B
:1000760095F0400CE8CCF8E9CDF9EACEFAEBCFFBE7
:1000860012036A85D0F05804700320D5B3E80470D3
:10009600075002B2D50203A992D5EC0460F7E4CC6E
:1000A600C0E0C398F8603B94186008400DD0E0FBB0
:1000B600020381E4FBFAC9FC8028E830E406E4C9BF
:1000C600FBE4CAFCE830E305E4C9CACBFCE8540704
:1000D6006010F8C3E913F9EA13FAEB13FBEC13FC0F
:1000E600D8F130F52FC3E49CFCEF9BFFEE9AFEEDB2
:1000F60099FDD0E0FBEF4E4D4C701222DB0302035C
:10010600A6EC2CFCEF33FFEE33FEED33FDED30E7CE
:10011600EB020381EF2BFFEE3AFEED39FDD0E0FB5B
:1001260050130BBB00030203A9ED13FDEE13FEEF04
:0801360013FFEC13FC0203812E
:10013E00EC4D6011E8497017ED33EC3304600DE4BB
:10014E00FCFFFEFD22E933E8330470F802039F1230
:10015E00036A58046009E4CC248150062850090231
:10016E0003A92840030203A6C0E0EB4A7044B980FD
:10017E0006D0E0FB020395EF4E701CBD8008EBFF2E
:10018E00EAFEE9FD80EBE98DF0A4FEE5F002022720
:10019E00E9CDF9EAFEEBFFEF89F0A4FCE5F0CE899C
:1001AE00F0A42EFFE435F0CD89F0A42DFEE435F059
:1001BE008067EF4E7005BD80D780C3EF8BF0A4AC87
:1001CE00F0EE8BF0A42CFCE435F0F8EF8AF0A42CC2
:1001DE00E5F038FCE433CB8DF0A42CFCE5F03BF8D5
:1001EE00EE8AF0A42CFCE5F038F8E433CF89F0A4C5
:1001FE002CFCE5F038CF3400CE89F0A42FFFE5F0CB
:10020E003EFEE433C98DF0A42EFEE5F039CD8AF022
:10021E00A42FFFE5F03EFEE43DFD33D0E0FB50079A
:10022E000BBB000F0203A9EC2CFCEF33FFEE33FEE9
:06023E00ED33FD02038117
:100244000203A9EC5D046005E85904700302039FEE
:1002540012036A580460F6EC4860F2EC7004FDFE88
:10026400FF22C860DB2481C85009C398600250068D
:100274000203A69850CAF582E9294B4A7005AB825D
:1002840002039575F0007C1A7880C3EF9BEE9AED1B
:1002940099400DC3EF9BFFEE9AFEED99FDE842F005
:1002A400DC23ACF0D0E0FFD0E0FED0E0FDAB822058
:1002B400E7101BEB60BAEC2CFCEF33FFEE33FEEDE2
:1002C40033FD020381E803F830E705C0F075F00060
:1002D400EF2FFFEE33FEED33FD40B830E7C280AAC6
:1002E400ED33EC33600A047003BD8004ECB2E7FC28
:0102F40022E7
:1002F50075F020800E75F010800575F0087D007E84
:10030500007F003392D530D503120837EC33401007
:10031500EF33FFEE33FEED33FDEC33FCD5F0ED228C
:0E032500E5F0247EA2D513CC92E7CDCEFF22C8
:10033300EDD2E7CD33EC3392D524814006E4FFFEC2
:10034300FDFC22FCE4CFCECDCC24E0501174FF8021
:10035300EDC3CC13CCCD13CDCE13CECF13CF0470BE
:07036300F030D5DE0208377F
:101FEA00E5102472F582E43403F583E005102290AB
:101FFA00036F301703900372E475F0011208D902D7
:10200A00065C2010E97F2ED2108018EF540F24901E
:10201A00D43440D4FF30140BEF24BFB41A00500359
:10202A002461FFE511600215110514E5147002051B
:10203A001330170E90036FE475F0011208D9EF02FE
:10204A0006A20243637403D2178003E4C217F51091
:10205A0090036F1208F0E4F511F513F514E5116019
:10206A00077F2012202D80F57512FFC211C210C2FF
:10207A0012C213C215C216C218121FF9FF700D3010
:10208A0017057F0012203EAF14AE1322B4255FC29B
:10209A00D5C214121FF9FF24D0B40A00501A75F0E1
:1020AA000A781130D50508B6FF0106C6A426F6201F
:1020BA00D5047002D21380D924CFB41A00EF500489
:1020CA00C2E5D214022330D21180C6D21080C0D207
:1020DA001280BCD2D580BAD21580B47F2012202DAE
:1020EA002012077401B5110040F1121FEAFF1220F5
:1020FA002D022067D218D2168095121FEAFB121FF2
:10210A00EAFA121FEAF94A4B7006792E7A247BFF03
:10211A0020122EE511602A7E008E82758300120637
:10212A007560060EEE651270F0C2D5EBC0E0EAC02B
:10213A00E0E9C0E0EE122391D0E0F9D0E0FAD0E075
:10214A00FB12065CFF60AAEBC0E0EAC0E0E9C0E06F
:10215A0012202DD0E02401F9D0E03400FAD0E0FBBF
:10216A00E5120460DCD512D98087D21280A212232C
:10217A007360F7E5127001041203B4A912600DE549
:10218A0012600914F51212241BEF60F3EA30E70219
:10219A00F404C3995079EAF425120430E701E404FF
:1021AA00F512800D12237360C1EA0512251212037B
:1021BA00B4EA90039EF030E701E4251204D5120434
:1021CA0020150114122391E4C0E012241B90039EEF
:1021DA00E0601320E70714F0122015802204F0D0E3
:1021EA00E014C0E07F00122015E512600712200CEF
:1021FA001512800B30150312200CD0E0022067D094
:10220A00E00480C4122373609EE512041203B490A2
:10221A00039EEAF0E5122015026001042404122349
:01222A009122
:10222B0074FF04C0E012241B122015E512201502C6
:10223B00600312200CD0E0B512E87F4512201F90EE
:10224B00039EE07F2B30E7047F2DF404C0E01220C7
:10225B002DD0E075F00A84C0F0122016D0E01220C9
:10226B0016022067791080027908C216C2188008FE
:10227B00D2D5790A8004790AC2D5E512047002F529
:10228B0012E4FAFDFEFF121FEAFC7B082011131269
:10229B001FEAFD7B1030100A121FEAFE121FEAFF25
:1022AB007B20EC3382D592D55013C3E43010069FBC
:1022BB00FFE49EFEE42011039DFDE49CFCE4CBF8BF
:1022CB00C211EC700CCFCECDCCE824F8F870F380B3
:1022DB0017C3EF33FFEE33FEED33FDEC33FCEB3383
:1022EB00FB994002FB0FD8E9EB301105F8D0E0C4A5
:1022FB0048B211C0E00AEC4D4E4F78207B0070C203
:10230B00EAB5120040BCC0E0122393D0F0D0E0201D
:10231B001104C4C0E0C4B211C0F0122016D0F0D525
:10232B00F0EB0220671208F9210453226F5820D5D5
:10233B004C20D14222734F227B44227B4920EA431B
:10234B0022815521AE46220E45217847244E50203E
:10235B00D92D20DD2E21002B20E12320FE20243738
:10236B002A209948000020F8E512B4FF03751206E5
:10237B00121FEAFC121FEAFD121FEAFE121FEAFFF0
:10238B009003970203F1790AA2D520131430150993
:10239B00B910020404B9080104A2D5201602500199
:1023AB00042012689212B511005034C0E07F203027
:1023BB0013197F30A21272167215500F1223EAC234
:1023CB0012C216C215C2187F30800F301503E9C038
:1023DB00E012202D301503D0E0F9D0E0B511CC3050
:1023EB0015177F30B9100C12202D7F583014077F32
:1023FB00788003B9080312202D3012057F2D02209F
:10240B002D7F202018F87F2B2016F322921280CFDD
:10241B007F00B40700500B2497F582E43403F58357
:10242B00E0FF22286E756C6C2900D211121FEA3066
:10243B0011F8C211781130D50108F60220992D50F0
:10244B00434958121FEA2403B405004001E49024C9
:10245B00499312201E743A12201ED21375110402D6
:02246B00226FDE
:10036A00E9D2E7C933E833F892D5EDD2E7CD33ECD9
:07037A0033FC5002B2D52252
:10038100EC30E7100FBF000C0EBE00080DBD0004DD
:100391000BEB6014A2D5EB13FCED92E7FD2274FF89
:1003A100FCFDFEFF22E480F8A2D574FF13FC7D80E2
:0303B100E480EFF6
:1003B400F920E73624F950037907E4F42402FBE535
:1003C40082158270021583DBF6E024FB501BE96082
:1003D40014E4F0E582158270021583E004F0B40A97
:0D03E40008E4F0D9EE7401F00A22C2D5221F
:1003F100ED33EC3392D5FA602AB4FF33EDC2E77BDB
:10040100FF60067A047916E4227A04791F20D50464
:100411007A04791A224E614E002B494E46002D492D
:100421004E4600E47A08F0A3DAFC7B00740722C090
:1004310083C082ECC0E0EDC0E0EEC0E0EFC0E0EAD6
:1004410075F010A4CAABF075F04DA42BFBE435F0A8
:10045100FCEA2410FAEB34C5FBEC34D9FCEDC2E71D
:10046100FF75F056A4F42411C5F0F434C58FF0A43F
:100471002AE5F03BE43CF020E714120526D0E0FF2A
:10048100D0E0FED0E0FDD0E0FC1202478014F4047D
:10049100120526D0E0FFD0E0FED0E0FDD0E0FC1256
:1004A100013ED082D083E0FAEDD2E7CD33EC3324A4
:1004B10082FBE4C3CF33CFCE33CECD33CD33DBF3A9
:1004C1007B0775F00A846004F0A31B0AE5F0F0A332
:1004D1008FF0740AA4FFACF08EF0740AA42CFEAC69
:1004E100F050010C8DF0740AA42CFDE435F0F0A35A
:0504F100DBDE740722B0
:1004F6003F8000004120000042C80000447A00000E
:10050600461C400047C35000497424004B1896808F
:100516004CBEBC205A0E1BCA6753C21C749DC5AE86
:10052600FB60065407601C2323120554EB54386005
:100536000912054012054F12013EECF8EDF9EEFAEC
:10054600EFCB22EB12054F80F1543803241C9004A4
:10055600F6FE93FC0EEE93FD0EEE930ECE93FF2267
:03000000023C239C
:0C3C2300787FE4F6D8FD758123023C6A2E
:10056600E709F608DFFA8046E709F208DFFA803E77
:1005760088828C83E709F0A3DFFA8032E309F60864
:10058600DFFA8078E309F208DFFA807088828C83CC
:10059600E309F0A3DFFA806489828A83E0A3F60880
:1005A600DFFA805889828A83E0A3F208DFFA804C5A
:1005B60080D280FA80C680D4806980F28033801031
:1005C60080A680EA809A80A880DA80E280CA80339A
:1005D60089828A83ECFAE493A3C8C582C8CCC58312
:1005E600CCF0A3C8C582C8CCC583CCDFE9DEE780E2
:1005F6000D89828A83E493A3F608DFF9ECFAA9F061
:10060600EDFB2289828A83ECFAE0A3C8C582C8CCB6
:10061600C583CCF0A3C8C582C8CCC583CCDFEADECF
:10062600E880DB89828A83E493A3F208DFF980CC31
:1006360088F0EF60010E4E60C388F0ED2402B4042A
:100646000050B9F582EB2402B4040050AF232345D1
:0606560082239005B6733B
:10065C00BB010689828A83E0225002E722BBFE029C
:09066C00E32289828A83E49322CF
:10067500BB010CE58229F582E5833AF583E022503A
:1006850006E92582F8E622BBFE06E92582F8E22284
:0D069500E58229F582E5833AF583E493229E
:1006A200BB010689828A83F0225002F722BBFE0137
:0206B200F32231
:1006B400F8BB010DE58229F582E5833AF583E8F07C
:1006C400225006E92582C8F622BBFE05E92582C828
:0206D400F22210
:1006D600EF8DF0A4A8F0CF8CF0A428CE8DF0A42E38
:0206E600FE22F2
:1006E800BC000BBE0029EF8DF084FFADF022E4CCF6
:1006F800F875F008EF2FFFEE33FEEC33FCEE9DECBF
:10070800984005FCEE9DFE0FD5F0E9E4CEFD22ED04
:10071800F8F5F0EE8420D21CFEADF075F008EF2F4E
:10072800FFED33FD4007985006D5F0F222C398FD3F
:050738000FD5F0EA22DC
:10073D00C5F0F8A3E028F0C5F0F8E5821582700247
:06074D001583E038F022E4
:10075300A3F8E0C5F025F0F0E58215827002158359
:06076300E0C838F0E822B6
:1007690075F008758200EF2FFFEE33FECD33CDCC47
:1007790033CCC58233C5829BED9AEC99E5829840CA
:100789000CF582EE9BFEED9AFDEC99FC0FD5F0D6A7
:10079900E4CEFBE4CDFAE4CCF9A88222B800C1B9D1
:1007A9000059BA002DEC8BF084CFCECDFCE5F0CB0F
:1007B900F97818EF2FFFEE33FEED33FDEC33FCEB48
:1007C90033FB10D703994004EB99FB0FD8E5E4F903
:1007D900FA227818EF2FFFEE33FEED33FDEC33FCF0
:1007E900C933C910D7059BE99A4007EC9BFCE99AE4
:1007F900F90FD8E0E4C9FAE4CCFB2275F010EF2F29
:10080900FFEE33FEED33FDCC33CCC833C810D70728
:100819009BEC9AE899400AED9BFDEC9AFCE899F863
:0E0829000FD5F0DAE4CDFBE4CCFAE4C8F922F6
:0E083700C3E49FFFE49EFEE49DFDE49CFC22D2
:10084500EB9FF5F0EA9E42F0E99D42F0E89C45F009
:010855002280
:10085600E8600FECC313FCED13FDEE13FEEF13FF80
:03086600D8F122A4
:10086900E86010ECA2E713FCED13FDEE13FEEF13A5
:04087900FFD8F02292
:10087D00E8600FEFC333FFEE33FEED33FDEC33FCD9
:03088D00D8F1227D
:0C089000ECF0A3EDF0A3EEF0A3EFF022DB
:10089C00A8828583F0D083D0821208B31208B312D9
:1008AC0008B31208B3E473E493A3C583C5F0C583FE
:1008BC00C8C582C8F0A3C583C5F0C583C8C582C8A6
:0108CC002209
:0C08CD00A42582F582E5F03583F5832236
:1008D900F8E0FBA3A3E0F925F0F0E58215827002A8
:0708E9001583E0FA38F0224C
:0908F000EBF0A3EAF0A3E9F02209
:1008F900D083D082F8E4937012740193700DA3A38E
:1009090093F8740193F5828883E4737402936860A1
:06091900EFA3A3A380DFA1
:10436300EFB40A07740D12436E740A309811A899BA
:10437300B8130CC2983098FDA899C298B811F630BA
:0743830099FDC299F5992292
:0C45B100EE30E707C3E49FFFE49EFE220B
:10002E00E4FFFE12065C600C0FEF70010E09E97022
:05003E00F20A80EF2230
:10440F00E94A4B70012212065CFF6D700122EF70BA
:0C441F0004FBFAF92209E970ED0A80EABA
:10379F0090035AEBF0A3EAF0A3E9F0A3E0FBA3E058
:1037AF00FAA3E0F912065C700302384B90035AE05B
:1037BF00FBA3E0FAA3E0F912065C700302385790FE
:1037CF00035DE0F9A3E0FAA3E0A3C9F0A3EAF0A335
:1037DF00E9F090035AA3E0FAA3E0F9900363EBF04A
:1037EF00A3EAF0A3E9F0900360E0FBA3E0FAA3E003
:1037FF00F912065CFF6026900363E0FBA3E0FAA3D7
:10380F00E0F912065C6F701590036175F0011207F5
:10381F003D900364E475F00112073D80C990036089
:10382F00E0FBA3E0FAA3E0F912065C7002800D90B2
:10383F00035BE475F00112073D0237BB90035AE0BA
:0F384F00FBA3E0FAA3E0F9227B007A00790022C4
:1036C40090036FEBF0A3EAF0A3E9F090036FE0FB43
:1036D400A3E0FAA3E0F912065CFF1244F3500C9045
:1036E4000370E475F00112073D80E0D21090036F7F
:1036F400E0FBA3E0FAA3E0F912065CFF642B60048C
:10370400EFB42D1D90036FE0FBA3E475F0011207E5
:1037140053A9F0FA12065C642D6003D38001C392AE
:1037240010E4900372F0A3F090036FE0FBA3E0FABF
:10373400A3E0F912065CFF12457C504290036FE04F
:10374400FBA3E0FAA3E0F912065CFF3395E0FEEF79
:1037540024D0FBEE34FFFA900372E0FEA3E0FF7C7A
:10376400007D0A1206D6EF2BFFEE3A900372F0A307
:10377400EFF0900370E475F00112073D80AA301059
:103784000A900372E0FEA3E0FF800F900372E0FE54
:0B379400A3E0FFC3E49FFFE49EFE22C1
:10091F00EF4E6012EF60010EEDBB010B89828A83EF
:10092F00F0A3DFFCDEFA2289F05007F709DFFCA9FC
:0C093F00F022BBFEFCF309DFFCA9F02253
:103C2F00023A5DE493A3F8E493A34003F68001F214
:103C3F0008DFF48029E493A3F85407240CC8C33396
:103C4F00C4540F4420C8834004F456800146F6DF65
:103C5F00E4800B010204081020408090246DE47E64
:103C6F00019360BCA3FF543F30E509541FFEE4935A
:103C7F00A360010ECF54C025E060A840B8E493A321
:103C8F00FAE493A3F8E493A3C8C582C8CAC583CA4C
:103C9F00F0A3C8C582C8CAC583CADFE9DEE780BE04
:01280C0000CB
:0F457C00EFC394304007EF943A50028001C322FE
:1044F300EFC394094005EF940E4004EFB42003D3B7
:044503008001C3224E
:00000001FF
